:100000000C9434000C943C030C9451000C9451005B
:100010000C9451000C9451000C9451000C9451001C
:100020000C9451000C9451000C946B030C949A03A3
:100030000C94C9030C9451000C9451000C94510081
:100040000C94F8030C9451000C9427040C9456045F
:100050000C9451000C9451000C9451000C945100DC
:100060000C9451000C94510011241FBECFEFD8E026
:10007000DEBFCDBF12E0A0E0B1E0E6EEFDE302C0DE
:1000800005900D92A033B107D9F723E0A0E3B2E0C9
:1000900001C01D92A13FB207E1F70E945C0E0C94D3
:1000A000EF1E0C940000A0913002B0913102109725
:1000B00069F0ED91FC91119712968D919C91139797
:1000C00090933102809330020995EDCF0895CF933C
:1000D000DF93EC0184E090E00E94681A009781F0C1
:1000E000FC01D183C08320913002309131023383EF
:1000F0002283909331028093300280E090E002C02E
:1001000081E090E0DF91CF910895809132028111DA
:1001100007C08AE392E00E94751981E08093320261
:100120008AE392E00895DF92EF92FF920F931F937C
:10013000CF93DF937C01C62FD42ED22F40E00E94B4
:10014000CD19882331F06D2DC7010E94051A811148
:100150002AC080E0D12C6D2F70E0EB0121976D2D2E
:1001600070E06C177D0754F4882331F0600F711F25
:1001700041E0C7010E94161AD394F1CF8823C9F039
:10018000B8016C0F7D1F40E0C7010E94161A88233A
:1001900081F0C701DF91CF911F910F91FF90EF90F8
:1001A000DF900C94821941E06C2FC7010E949D19C9
:1001B000D1CF80E0DF91CF911F910F91FF90EF9011
:1001C000DF900895FF920F931F93CF93DF93CDB7E6
:1001D000DEB72C970FB6F894DEBF0FBECDBFFC0183
:1001E000F1800E9485008E01095F1F4F26E04BE3DE
:1001F0006F2D0E9493006B857C8576276727762775
:1002000049855A855427452754272F813885322719
:10021000232732273A8329835C834B837E836D8334
:100220003A815C817E8180E090E02C960FB6F89454
:10023000DEBF0FBECDBFDF91CF911F910F91FF9019
:100240000895DF92EF92FF920F931F93CF93DF9366
:100250001F92CDB7DEB77C0181E0F701808388E68D
:1002600081830E9485008E010F5F1F4F21E045E7CB
:1002700068E60E949300882331F081E0F701218134
:100280009981291380E0F7018083882331F1D1809F
:100290000E9485008C0140E06D2D0E94CD198823BD
:1002A000E1F06BE6C8010E94051A8823B1F060E016
:1002B000C8010E94051A882381F0C8010E94821992
:1002C000882359F0F70180830F90DF91CF911F9120
:1002D0000F91FF90EF90DF90089580E0F3CFDC0165
:1002E0001296ED91FC911397468557856089718927
:1002F000828996E0980F9D3728F44E5F5F4F6F4FCD
:100300007F4F06C099E8980F4D5F5F4F6F4F7F4F4B
:10031000928B1296ED91FC91139746875787608BCD
:10032000718B82859385A485B5850196A11DB11D2C
:1003300082879387A487B58708952AE331E0FC017B
:100340003183208373836283642F0C9433036F9211
:100350007F928F929F92AF92BF92CF92EF92FF9235
:100360000F931F93CF93DF93CDB7DEB73C01142FCC
:10037000DC0111967C936E9313963C932E93129707
:100380001596FC92EE9214971796BC92AE92169721
:1003900019969C928E921897FC01128613861486E9
:1003A00015861E961D921D921D921C925197529673
:1003B0001C924889BC0143960E949D01D301ED9196
:1003C000FC91119710831296ED91FC911397008385
:1003D0001496ED91FC911597C082DF91CF911F91FA
:1003E0000F91FF90EF90CF90BF90AF909F908F9024
:1003F0007F906F900895CF92DF92EF92FF92CF930C
:10040000DF93EC010E9485040E949204CE84DF8475
:10041000E888F9880E9485040E949B04C701B60100
:10042000DF91CF91FF90EF90DF90CF900895FC0186
:100430008FB7F8944285538564857585A085B1850D
:100440002C910680F781E02D908190FF02C02F3F14
:1004500099F48FBFB62FA52F942F8827820F911D57
:10046000A11DB11DBC01CD0123E0660F771F881FC0
:10047000991F2A95D1F708954F5F5F4F6F4F7F4FB8
:10048000E8CFCF92DF92EF92FF920F931F93CF931B
:10049000DF938C016A017B010E941702EB01C114FA
:1004A000D104E104F10481F0C8010E9417026C1B21
:1004B0007D0B683E734098F381E0C81AD108E108CB
:1004C000F108C851DC4FEBCFDF91CF911F910F9115
:1004D000FF90EF90DF90CF900895FC018091C600CF
:1004E00094819F5F9F712581921721F09483E90F7A
:1004F000F11D86830895FC0194818581981751F040
:1005000085818F5F8F718583E80FF11D86818093D0
:10051000C60008958091C1008F7D8093C100089529
:1005200020E431E0FC0131832083738362831482F1
:10053000158263E10C94330326E431E0FC0131833E
:100540002083738362831482158262E10C943303E7
:10055000CF93DF93EC01BC010E949002BE01CE015B
:1005600086960E949C021092C50088E08093C40089
:1005700088E98093C10086E08093C200DF91CF912B
:100580000895FC0194818581981751F095819F5FB2
:100590009F71DF01A90FB11D16968C919583089567
:1005A0008FEF0895CF93DF93EC010E9485040E94A2
:1005B00092049C818D81C1E0981301C0C0E00E942B
:1005C00085040E949B048C2FDF91CF910895FC013C
:1005D00094819F5F9F7185819817E9F3DF01A90FCF
:1005E000B11D16966C9394838091C10080628093B4
:1005F000C1000895CF93C82F80914502811107C093
:100600008DE492E00E94A80281E0809345026C2F65
:100610008DE492E00E94E70280E090E0CF9108959F
:10062000CF93DF93CDB7DEB780913D0281110DC02E
:1006300060E070E08AEF92E00E94891B90933C0298
:1006400080933B0281E080933D02AE01475F5F4FA4
:100650006F81788580913B0290913C020E94041C3E
:10066000DF91CF910895E62FF0E0EE0FFF1FEF55D9
:10067000FD4F9183808308951F920F920FB60F92C2
:1006800011242F933F934F935F936F937F938F9397
:100690009F93AF93BF93EF93FF938091A3029091A9
:1006A000A402009739F0DC01ED91FC910190F081FA
:1006B000E02D0995FF91EF91BF91AF919F918F919F
:1006C0007F916F915F914F913F912F910F900FBE4E
:1006D0000F901F9018951F920F920FB60F92112432
:1006E0002F933F934F935F936F937F938F939F933A
:1006F000AF93BF93EF93FF938091B5029091B602B1
:10070000009739F0DC01ED91FC910190F081E02D32
:100710000995FF91EF91BF91AF919F918F917F913B
:100720006F915F914F913F912F910F900FBE0F905E
:100730001F9018951F920F920FB60F9211242F93AE
:100740003F934F935F936F937F938F939F93AF9359
:10075000BF93EF93FF938091B7029091B8020097F7
:1007600039F0DC01ED91FC910190F081E02D0995CB
:10077000FF91EF91BF91AF919F918F917F916F9179
:100780005F914F913F912F910F900FBE0F901F904F
:1007900018951F920F920FB60F9211242F933F932B
:1007A0004F935F936F937F938F939F93AF93BF9379
:1007B000EF93FF938091B9029091BA02009739F0BC
:1007C000DC01ED91FC910190F081E02D0995FF9104
:1007D000EF91BF91AF919F918F917F916F915F91B9
:1007E0004F913F912F910F900FBE0F901F90189532
:1007F0001F920F920FB60F9211242F933F934F9396
:100800005F936F937F938F939F93AF93BF93EF9378
:10081000FF938091C1029091C202009739F0DC01F0
:10082000ED91FC910190F081E02D0995FF91EF9100
:10083000BF91AF919F918F917F916F915F914F91F8
:100840003F912F910F900FBE0F901F9018951F9200
:100850000F920FB60F9211242F933F934F935F93F4
:100860006F937F938F939F93AF93BF93EF93FF9378
:100870008091C5029091C602009739F0DC01ED919C
:10088000FC910190F081E02D0995FF91EF91BF91CE
:10089000AF919F918F917F916F915F914F913F9118
:1008A0002F910F900FBE0F901F9018951F920F92CF
:1008B0000FB60F9211242F933F934F935F936F9333
:1008C0007F938F939F93AF93BF93EF93FF93809109
:1008D000C7029091C802009739F0DC01ED91FC91BC
:1008E0000190F081E02D0995FF91EF91BF91AF91BB
:1008F0009F918F917F916F915F914F913F912F9138
:100900000F900FBE0F901F90189580919B02811140
:1009100006C081E080939A02789480939B0289E9D3
:1009200092E00895FC018181882321F08FB78083B4
:10093000F89411820895FC018181811104C081E045
:10094000818380818FBF089521E0FC012183789409
:100950000895DF92EF92FF920F931F93CF93DF934F
:100960007C01C42FD22E40E00E94CD19882321F0B3
:100970006C2FC7010E94051AE8010D0D111DC0174B
:10098000D10741F0882321F06881C7010E94051A30
:100990002196F5CF882351F0C701DF91CF911F91A8
:1009A0000F91FF90EF90DF900C94821980E0DF911F
:1009B000CF911F910F91FF90EF90DF900895FF92DC
:1009C0000F931F93CF93DF9300D0CDB7DEB7182FCF
:1009D000F62E0E9485001A838E010E5F1F4F21E0C4
:1009E00043E168E10E94A904882359F00E94850030
:1009F000F9820150110921E042E168E10E94A90455
:100A000001C080E00F900F90DF91CF911F910F9167
:100A1000FF900895DF92EF92FF920F931F93CF9371
:100A2000DF937C01C42FD22E40E00E94CD19882391
:100A300021F06C2FC7010E94051AE8010D0D111D50
:100A4000C017D10741F0882321F06881C7010E94B7
:100A5000051A2196F5CF882351F0C701DF91CF9178
:100A60001F910F91FF90EF90DF900C94821980E01E
:100A7000DF91CF911F910F91FF90EF90DF9008953C
:100A8000CF92DF92FF920F931F93CF93DF9300D00B
:100A9000CDB7DEB7182F062F8695869524E1F22E66
:100AA000F80E0E9485006C0140E068E10E94CD19BB
:100AB0008823E9F16F2DC6010E94051A8823B9F138
:100AC00041E068E1C6010E949D19882381F140E060
:100AD000BE016E5F7F4FC6010E94161A882339F14E
:100AE000C6010E9482191370212F30E0220F331F9C
:100AF00063E070E0022E01C0660F0A94EAF7609589
:100B00001A811623602F01C0660F2A95EAF7162B6B
:100B10001A83882371F00E94850019838E010F5F6C
:100B20001F4F21E04F2D68E10E940A0502C080E0BE
:100B3000DACF0F900F90DF91CF911F910F91FF901F
:100B4000DF90CF9008950F931F93CF93DF931F9261
:100B5000CDB7DEB7182F062F0E948500098342E02B
:100B6000410F8E010F5F1F4F21E068E10E940A05CF
:100B70000F90DF91CF911F910F9108950F931F93C5
:100B8000CF93DF9300D0CDB7DEB70E9485008C01F4
:100B900040E063E00E94CD198823D1F165EAC801E5
:100BA0000E94051A8823A1F16AE5C8010E94051A6E
:100BB000882371F1C8010E948219882349F10E949B
:100BC00085001A828E010E5F1F4F21E040E068E130
:100BD0000E94A9048823E1F00E94850025E2298370
:100BE0008E010F5F1F4F21E041E068E10E94A904E0
:100BF000882371F060E888E10E94DF0410E0882318
:100C000049F060E0812F0E94400581110EC002C0B2
:100C100080E0F4CF80E01F5F143089F70F900F90D1
:100C2000DF91CF911F910F91089560E0812F0E9475
:100C3000A305F1CF0895CF93DF93FC0187858F5FE4
:100C40008787DB018C918383813511F481E0828376
:100C500020E0A42FB0E01197822F90E08A179B0725
:100C600054F4EB01C80FD91F3981EF01C80FD91F08
:100C70003C832F5FF1CF41504687DF91CF9108959C
:100C8000FC0186818F5F86838281DB018C9390E0FB
:100C90008581981788F4A381B481109759F09D013C
:100CA0002F5F3F4F348323838C91DB01A90FB11D4C
:100CB00011968C939F5FECCF8F5F0895FC01808528
:100CC0008F5F8087A281B38113968C918135B9F4AF
:100CD00082E5848380E09781891788F4A581B681B5
:100CE000109759F09D012F5F3F4F368325839C91CC
:100CF000DB01A80FB11D11969C938F5FECCF84810F
:100D0000DB018C9387818F5F0895CF93DF93FC0184
:100D100080898F5F808BDB019C9192839235C1F437
:100D20008B30B0F081E08383848320E0A42FB0E097
:100D30001197822F90E08A179B0754F4EB01C80F9C
:100D4000D91F3981EF01C80FD91F3D832F5FF1CF24
:100D500041504787DF91CF910895089580914502D2
:100D6000811107C08DE492E00E94A80281E0809387
:100D700045028DE492E008958091750381110BC0C6
:100D80008DE793E00E94F51381E0809375038DEA6F
:100D900096E00E9467008DE793E008958091DF025E
:100DA00081110BC087EE92E00E94C31481E0809312
:100DB000DF028AE196E00E94670087EE92E00895E4
:100DC0008091D502811107C08DED92E00E94210132
:100DD00081E08093D5028DED92E008950F931F93EB
:100DE000CF93DF93082F162FD42FC0E0602F8C2FC6
:100DF0000E94A305612F81E08C0F0E94A3056D2F37
:100E000082E08C0F0E94A305CC5FC03179F7DF919F
:100E1000CF911F910F910895CF93DF93D82FC0E00A
:100E20006D2F8C2F0E9440056D2F81E08C0F0E944A
:100E300040056D2F82E08C0F0E94400560E083E04A
:100E40008C0F0E944005CC5FC03151F7DF91CF91EC
:100E50000895CF93883061F0C82F0E94BC066C2F94
:100E60000E94D31243E060E083E0CF910C94EE0641
:100E7000CF910895CF93883061F0C82F0E94BC06AF
:100E80006C2F0E94D31240E061E085E0CF910C947A
:100E9000EE06CF910895CF93883061F0C82F0E945D
:100EA000BC066C2F0E94D31240E060E080E0CF913E
:100EB0000C94EE06CF910895EF92FF920F931F933B
:100EC000CF93DF93CDB7DEB762970FB6F894DEBF4E
:100ED0000FBECDBF0E94E0060E94E2002D873E8734
:100EE000ED84FE840E94E0060E94E20049875A8752
:100EF00009851A850E94E0060E94E2006D837E83C8
:100F00002D813E81C701F7FE04C0882799278E19DD
:100F10009F09813197422CF01E141F0424F082E0B7
:100F200003C088E001C080E0A80117FF04C0442787
:100F30005527401B510B4131574234F01016110612
:100F400014F081E001C083E0A90137FF04C0442709
:100F50005527421B530B4131574234F012161306EA
:100F600014F085E001C084E062960FB6F894DEBF0D
:100F70000FBECDBFDF91CF911F910F91FF90EF90EA
:100F800008952F923F924F925F926F927F928F922D
:100F90009F92AF92BF92CF92DF92EF92FF920F9308
:100FA0001F93CF93DF93EC0180EB91E099838883CB
:100FB0004E012CEC821A2EEF920AD4011D921C9243
:100FC000FE01EA5CFE4F1082118212821382349677
:100FD0001082118212821382349610821182128240
:100FE000138234968AE0DF01282F1D922A95E9F7B3
:100FF0003A9610823196DF011D928A95E9F73A966A
:1010000010823196108231961082118212821382E0
:1010100034961082118212821382349681E080838A
:1010200031961082319698E0908331969083319674
:1010300086E0DF01282F1D922A95E9F79083DE01D3
:10104000A559BE4FECE0F1E001900D928A95E1F7D1
:10105000FE01EF58FE4F10820E94CE068C010E5FFB
:101060001F4FFC01E457FF4F2081318147E1429F30
:10107000C001439F900D11247801E80EF91E2E0146
:1010800082E0480E511C83E3282E9AEA692E91E0F3
:10109000792E25E4322E3EE9C32E31E0D32E44EAE8
:1010A000A42E41E0B42E0E151F0509F45AC0D40138
:1010B0008D919C918630910508F050C0289EB0011A
:1010C000299E700D1124640D751D83E390E00E942C
:1010D0002A1AFC0111830083738262823482158292
:1010E0001682118A128A9C012D5E3F4F88E991E099
:1010F000948B838B158A368A11A212A2D4A2C3A222
:1011000035A210A611A6B3A6A2A635A724A736A677
:1011100011AA12AAD4018D919C91119701968D93D9
:101120009C933097D9F0CF010296D8011D969C93DD
:101130008E931C97A081B18119963C932E9318979A
:10114000A081B18181961B969C938E931A97A08162
:10115000B181BA961796FC93EE931697095E1F4FCE
:10116000A2CF0E94CE068C010E5F1F4FFC01E457F8
:10117000FF4F8081918127E1289F7001299FF00C0A
:101180001124E00EF11EE016F10661F0F801D580A1
:101190000E94BC066D2D0E94D3120E94BE05095EFE
:1011A0001F4FF1CF2296D4018D919C9123E3289F6C
:1011B0008001299F100D11240C0F1D1F0C171D07F6
:1011C00091F0E881F981F5800E94BC066F2D0E94A4
:1011D000D31282E00E940C0743E063E080E00E94AB
:1011E000EE06E396EBCFDF91CF911F910F91FF9029
:1011F000EF90DF90CF90BF90AF909F908F907F90B7
:101200006F905F904F903F902F9008950F931F9392
:10121000CF93DF93CDB7DEB7A4970FB6F894DEBFB8
:101220000FBECDBF2EE1E2E1F1E0DE0111960190AB
:101230000D922A95E1F726E0E0E3F1E0DE015F960A
:1012400001900D922A95E1F7FC01E859FE4F608369
:101250003297AFE1B0E0AC0FBD1FA60FB11D2C91CE
:10126000208333964083A42FB0E08C0106591E4F93
:101270002FE130E02C0F3D1F2A0F3B1FF901208189
:10128000F8012083F5E04F9FA001112420E030E019
:10129000F901E40FF51F01E010E00C0F1D1FE00F36
:1012A000F11F708167131CC065E06A9FA0016B9FEE
:1012B000500D1124400F511FFA01E20FF31F21813D
:1012C000FC01E959FE4F2083DC01AB59BE4FEFE131
:1012D000F0E0EC0FFD1FE20FF11D20812C9305C003
:1012E0002F5F3F4F2430310599F6A4960FB6F8943E
:1012F000DEBF0FBECDBFDF91CF911F910F9108953B
:101300004F925F927F928F929F92AF92BF92CF92B5
:10131000DF92EF92FF920F931F93CF93DF93AC0175
:101320004B595E4F20E030E0B12CA12CFC013296ED
:101330002C01ACEC4A1AAEEF5A0A83E3982EEE2445
:10134000E394F12C8F01E201A881B9819A9EC0013A
:101350009B9E900D11248E0F9F1F822ED80108177F
:10136000190779F10D5C1F4FCD90DC901197EA01C0
:101370007880E601DD807D10F1CF55968C915597F0
:1013800081111FC016968C9116978823D1F0C70142
:1013900001C0880F8A94EAF7A82A1B2D812F8B1988
:1013A00051969C915197891758F4ED01C80FD11DA2
:1013B0000F81CB01810F911DEC0108831F5FEECFE0
:1013C000B12E2F5F3F4F4F5F5F4F2630310509F041
:1013D000B9CF81E08B0DDB01AB0DB11DAC92D20119
:1013E0004D915C9193E3949F9001959F300D112452
:1013F0002E0F3F1F92E52E173F0749F045894423E2
:1014000021F096A781AB70AB67A7F396F4CFDF917D
:10141000CF911F910F91FF90EF90DF90CF90BF90F1
:10142000AF909F908F907F905F904F9008952F92F4
:101430003F924F925F926F927F928F929F92AF9264
:10144000BF92CF92DF92EF92FF920F931F93CF93B1
:10145000DF936B01442EFB0180808C0106591E4FE7
:10146000C5E0D0E0612C912C7C01F2E0EF0EF11C84
:101470005C012CECA21A2EEFB20A83E3582E91E500
:10148000792EC4010C2E02C0959587950A94E2F737
:1014900080FF63C09701F50140815181549EC001D6
:1014A000559E900D11248E0D9F1DD90128173907C7
:1014B00009F44BC02D5C3F4FED91FC911197558184
:1014C000F80140815413F1CFC601019695967C92A4
:1014D000959797969C938E939697F6014181E0E0BD
:1014E00025E030E050E0BA01022E02C07595679504
:1014F0000A94E2F760FDEF5F21503109A0F7AC01DB
:101500004E0F511DFC01E417F507B1F031966081D3
:10151000612C25E030E0262E312C6101022E02C024
:10152000D594C7940A94E2F7C0FC63942150310922
:10153000A0F7460D511DE7CFE81BF90B6E2EE41501
:1015400028F4EF5F9896EC9301C0C6016C01C60CBD
:10155000D11CF80180810E942907219701501109AF
:10156000CF3FFFEFDF0709F08CCFDF91CF911F91C5
:101570000F91FF90EF90DF90CF90BF90AF909F9032
:101580008F907F906F905F904F903F902F90089535
:101590002F923F924F925F926F927F928F929F9283
:1015A000AF92BF92CF92DF92EF92FF920F931F9371
:1015B000CF93DF93CDB7DEB765970FB6F894DEBF54
:1015C0000FBECDBF2C014A015B010E945C071201D6
:1015D0002DE9221A2EEF320AD1018C93F201EE5935
:1015E000FE4FFE87ED8790819923B1F0913009F08D
:1015F000C4C0F2013296D201AC5CBE4F2D913C9139
:1016000043E3429FC001439F900D11248E0F9F1F03
:1016100021E541E050E0A1C0F201EF59FE4F908179
:101620009923D1F093E03396908396E08201045B96
:101630001E4FD8019C93482F63E0C2010E94060907
:10164000F8014081B20165597E4FC2010E94170A1C
:1016500081E0AD85BE858C9382010E5F1F4F320104
:10166000BCEC6B1ABEEF7B0AF3012081318143E3AE
:10167000429FC001439F900D11249801280F391FEC
:101680003C872B877801A2014C595E4F588B4F87BE
:1016900062015EEBC51A5EEFD50AC98AC201845B9E
:1016A0009E4F9B8B8A8BAB85BC85EA16FB0609F4A3
:1016B00064C0F7018589882309F440C00190F08156
:1016C000E02D6581AF85B8896C93F1014081C2013D
:1016D0000E940609D3012D913C91B3E3B29FC00152
:1016E000B39F900D1124800F911FF80140E0E8177F
:1016F000F907C9F025892223A1F041A19F01295EA4
:101700003F4FCC8ADD8A5C896989561B541748F49F
:10171000D9015D919D01AC89BD895D93BD8BAC8B79
:10172000F2CFF396E4CFEA89FB894083B601C20188
:101730000E94170AE1E0AD85BE85EC93F3E3EF0E5E
:10174000F11CB1CF3589311107C025A3A081B1812A
:101750001F965C934E931E97F396E817F90791F73F
:10176000B201635B7E4FC2010E948009F201E95A17
:10177000FE4F8083AD85BE851C92F201E25CFE4F78
:10178000FC87EB8780819181A281B381A5019401BF
:10179000281B390B4A0B5B0BDA01C901893E9340C8
:1017A000A105B10508F4ABC00E94AE06BF92AF928E
:1017B0009F928F9224E631E03F932F939F938F93D4
:1017C0000E941003AD85BE851C910E94AE061F923B
:1017D0001F932AE431E03F932F939F938F930E94AE
:1017E000100382010E5F1F4FF201EC5CFE4F8081FF
:1017F000918123E3289F3001299F700C1124600EF2
:10180000711E0FB6F894DEBF0FBECDBFBAE02B2E0F
:101810009E012F5F3F4F690187E5E82E81E0F82E9A
:101820000615170509F456C0D80191968C91919729
:101830001F928F9356968C9156971F928F939896DE
:101840008C9198971F928F9395968C911F928F935E
:10185000EDE4F1E0FF93EF931F922F92DF92CF928E
:101860000E94D41B0FB6F894DEBF0FBECDBFAD856E
:10187000BE858C91D801ED91FC91813079F4858100
:10188000D201AB59BE4FE0E09D91891709F4F6C132
:10189000EF5FE630C9F7A8E53A2E04C085810E94C3
:1018A000C912382E0E94AE06DF92CF92232D032C50
:1018B000000C330B3F933F92FF92EF929F938F93D5
:1018C0000E9410030FB6F894DEBF0FBECDBF0D5CB3
:1018D0001F4FA6CF0E94AE0625ED31E03F932F9318
:1018E0009F938F930E941003AB85BC858D929D9230
:1018F000AD92BC9213970F900F900F900F900E9493
:10190000AE0686960E94D202882309F4BCC110E07C
:101910000E94AE0686960E94D202882339F00E9469
:10192000AE0686960E94C102182FF2CF143309F436
:10193000C3C080F5123309F461C008F054C01133FC
:1019400009F0A1C10E94AE06BF92AF929F928F9202
:1019500020E631E03F932F939F938F930E941003D3
:1019600082010E5F1F4FF201EC5CFE4F808191817E
:1019700023E3289F7001299FF00C1124E00EF11E33
:101980000FB6F894DEBF0FBECDBF7DE6C72E71E067
:10199000D72E3FC0163309F406C108F4B3C0113581
:1019A00009F071C10E94AE061F921F9326E831E034
:1019B0003F932F939F938F930E9410030E94AE0634
:1019C00025E731E03F932F939F938F930E9410035D
:1019D000F201EF59FE4F81E080830FB6F894DEBF2D
:1019E0000FBECDBF50C110E06201B9EACB1ABEEF05
:1019F000DB0AFDE6EF2EF1E0FF2E42C010E06201AF
:101A0000E4EBCE1AEEEFDE0AEDE6EE2EE1E0FE2E7E
:101A10001AC0E016F10609F470C0D8011596BC9002
:101A20000E94AE061F92BF92DF92CF929F938F9338
:101A30000E9410030D5C1F4F0F900F900F900F909E
:101A40000F900F90E6CFF6018081181708F055C06F
:101A5000F201E10FF11DEE5BFE4F00810E94AE0628
:101A60001F920F93FF92EF929F938F930E94100308
:101A70001F5F0F900F900F900F900F900F90E3CF7C
:101A8000D6018C911817C8F5F201E10FF11DE35B47
:101A9000FE4F00810E94AE061F920F93FF92EF92BD
:101AA0009F938F930E9410031F5F0F900F900F90D2
:101AB0000F900F900F90E4CF820105591E4FBBE9A4
:101AC0004B1ABEEF5B0A6DE6E62E61E0F62EF801DA
:101AD000D2908F010E94AE061F92DF92FF92EF928A
:101AE0009F938F930E9410030F900F900F900F9071
:101AF0000F900F904016510651F70E94AE0625E751
:101B000031E0B1C082010E5F1F4FF201EC5CFE4F6D
:101B10008081918123E3289F7001299FF00C11247B
:101B2000E00EF11E34E5832E31E0932E4AE0642E60
:101B30009E012F5F3F4F590157E5C52E51E0D52E2D
:101B4000E016F10609F48BC0D801ED91FC91868571
:101B5000978599279F938F939F928F921F926F9251
:101B6000BF92AF920E94D41BD801ED91FC91858168
:101B70000E94C912782E0E94AE06BF92AF92272D06
:101B8000072C000C330B3F937F92DF92CF929F93F1
:101B90008F930E9410030D5C1F4F0FB6F894DEBFA9
:101BA0000FBECDBFCDCF82010E5F1F4FF201EC5CA7
:101BB000FE4F8081918123E3289F7001299FF00CC3
:101BC0001124E00EF11E8CE7882E81E0982E9AE019
:101BD000692E9E012F5F3F4F590127E5C22E21E05C
:101BE000D22E0E151F05D9F1D801D2968C91D2971D
:101BF0001F928F9392968C9192971F928F935296E9
:101C00008C9152971F928F9399968C911F928F93DC
:101C10009F928F921F926F92BF92AF920E94D41B9D
:101C2000D801ED91FC9185810E94C912782E0E9405
:101C3000AE06BF92AF92272D072C000C330B3F93BB
:101C40007F92DF92CF929F938F930E9410030D5C3F
:101C50001F4F0FB6F894DEBF0FBECDBFC2CF0E949C
:101C6000AE0625ED31E03F932F939F938F930E9413
:101C700010030F900F900F900F9005C0F0E0E25707
:101C8000FE4F30800FCE65960FB6F894DEBF0FBEC4
:101C9000CDBFDF91CF911F910F91FF90EF90DF901B
:101CA000CF90BF90AF909F908F907F906F905F90FC
:101CB0004F903F902F9008950F931F93CF93DF93F2
:101CC000CDB7DEB7C257D1400FB6F894DEBF0FBE16
:101CD000CDBF0E9485040E949B048E010F5F1F4FA1
:101CE000C8010E94C1070E94CE06FC011183008337
:101CF0000E94CE060E94141580E090E0CE58DE4F80
:101D00000FB6F894DEBF0FBECDBFDF91CF911F910C
:101D10000F9108958F929F92AF92BF92CF92EF92C0
:101D2000FF920F9380916E0005B544B58160C82E77
:101D30000360436080E18F9386E4882E912C95E3C5
:101D4000A92EB12C2EE6E22EF12C25E430E064E43D
:101D500070E080ED93E00E94A70181E08093C803CA
:101D60000F900F91FF90EF90CF90BF90AF909F900A
:101D70008F900895FC0111821082138212821582C5
:101D800014821782168282E090E09187808784E136
:101D9000828714861386158616861786108A0895FC
:101DA000FC0184E1828714861386158616861786C1
:101DB000108A0895AF92BF92CF92DF92EF92FF9276
:101DC0000F931F93CF93DF935C010E948500EC017A
:101DD00041E064E20E94CD1908E813E09EE8C92EB4
:101DE00093E0D92E7801CE14DF0459F0882329F02E
:101DF00041E0B701CE010E94161A9FEFE91AF90AD5
:101E0000F2CF882369F040E06EE873E0CE010E94D3
:101E1000161A882329F0CE010E948219811102C06E
:101E2000C0E005C0809188038130D1F7C1E0E2E1D4
:101E3000F2E0CC2339F0C1E0D80111969C91808169
:101E40009813C0E00F5F1F4F3196C016D10689F777
:101E50008091C803811102C00E948A0E80ED93E038
:101E60000E94FB01F501658776878787908B8C2F11
:101E7000DF91CF911F910F91FF90EF90DF90CF9066
:101E8000BF90AF900895CF92DF92FF920F931F9370
:101E9000CF93DF9300D000D0CDB7DEB76C01FC014B
:101EA000158616861786108A1C828285982F977F42
:101EB00011E0963829F0803419F0863509F010E0E9
:101EC0000E94850041E064E20E94CD19F82E88232B
:101ED00009F441C00E94850041E0BE016C5F7F4F64
:101EE0000E94161A8823B9F18C818130A1F50E94D5
:101EF000850041E0BE016C5F7F4F0E94161A882367
:101F000051F18C81811127C00E94850041E0BE0102
:101F10006C5F7F4F0E94161A8823E9F08C81811133
:101F20001AC00E94850041E0BE016C5F7F4F0E9495
:101F3000161A882381F08C818F3F69F41B821A82E4
:101F40000E94850041E0BE016D5F7F4F0E94161A1E
:101F5000811106C031C00E94AE0623ED31E030C0D1
:101F60000E94850041E0BE016E5F7F4F0E94161AFD
:101F7000882311F18B819A81980FF1F4111102C01D
:101F800092E001C093E0891B80938703813428F09D
:101F90000E94AE0622EB31E013C00E94850041E0B2
:101FA000BE016C5F7F4F0E94161A811121C00E94F2
:101FB000AE0627EB31E004C00E94AE0628ED31E00A
:101FC0003F932F939F938F930E9410030E9485004D
:101FD00040E0BE016C5F7F4F0E94161A0E94850090
:101FE0000E9482190F900F900F900F9080E0AEC06A
:101FF0008C81853DE1F60E94850041E0BE016C5F69
:102000007F4F0E94161A811105C00E94AE062CEB6C
:1020100031E0D6CFF60102852C8130E0802F90E0B0
:1020200001962817390789F70A52112369F1198295
:102030000E94850041E0BE016F5F7F4F0E94161A2B
:10204000198181111FC00E94AE061F921F9321ECBF
:1020500031E03F932F939F938F930E9410030E9430
:10206000850040E0BE016C5F7F4F0E94161A0E94FF
:1020700085000E9482190F900F900F900F900F9083
:102080000F90B4CF1111DFCF10E0809187031817A4
:10209000A0F4C12ED12CFF2049F00E94850041E020
:1020A000B60168577C4F0E94161AF82EF601E857C1
:1020B000FC4F8081080F1F5FE8CFF1101BC00E940A
:1020C000AE062EEC31E03F932F939F938F930E94A7
:1020D00010030E94850040E0BE016C5F7F4F0E94AC
:1020E000161A0E9485000E9482190F900F900F907F
:1020F0000F901CC00E94850041E0BE016C5F7F4FC5
:102100000E94161A182F882389F08C81080F71F409
:102110000E94850040E0BE016C5F7F4F0E94161A4E
:102120000E9485000E948219812F10C00E94AE0675
:102130002DED31E03F932F939F938F930E941003D7
:102140000F900F900F900F9010E0E2CF0F900F9034
:102150000F900F90DF91CF911F910F91FF90DF9023
:10216000CF900895EF92FF921F93CF93DF930E9439
:102170008500EC0140E064E20E94CD1992E1E92E75
:1021800092E0F92E16E0882329F0F7016081CE0154
:102190000E94051A1150FFEFEF1AFF0A1111F3CF39
:1021A000882341F0CE01DF91CF911F91FF90EF90F6
:1021B0000C94821980E0DF91CF911F91FF90EF90F6
:1021C0000895AF92BF92CF92DF92EF92FF920F935A
:1021D0001F93CF93DF937C01D62FB42EA52EC22E52
:1021E0000E94850040E064E20E94CD19882309F432
:1021F00092C00E9485008C0160E00E94051A88232D
:1022000009F489C060E0C8010E94051A882309F416
:1022100082C06FEFC8010E94051AD03411F463E048
:1022200001C062E0882309F476C0C62FCC0D0E945D
:1022300085008C016C2F0E94051A882309F46BC05D
:102240006C2F70E0719561957109C8010E94051AA3
:10225000882309F460C064EDC8010E94051A882330
:1022600009F459C06D2FC8010E94051AC82FD03437
:1022700021F094EDD92EDD0E0AC0882331F00E94A2
:10228000850061E00E94051AC82F85E1D82E0B2D2C
:102290001A2D5801AC0CB11CA016B10679F0CC2354
:1022A00041F0F801C0810E9485006C2F0E94051A40
:1022B000C82FF80181918F01D80EEECFCC2381F188
:1022C0000E9485008C016D2D61950E94051A88235E
:1022D00039F160E0C8010E94051A882309F10E94C3
:1022E00085000E9482198823D9F0F701D28781E006
:1022F00090E0948783878091C803811102C00E9477
:102300008A0E80ED93E00E94FB01F70165877687D6
:102310008787908B06C0C0E0D03409F0AACFB5CF34
:10232000C0E08C2FDF91CF911F910F91FF90EF9024
:10233000DF90CF90BF90AF9008950F931F93CF93EE
:10234000DF93EC018B018B859C858130910539F001
:1023500082309105C1F0892B09F0E5C00CC06230D4
:10236000710509F0E0C0CE010E94DA0E811108C0AB
:10237000CE010E94B21023E04FE052E064E1D0C0F1
:102380001C870B87D0C06230710509F086C0CE0172
:102390000E94430F811110C0CE010E94B210882309
:1023A00041F08A85803409F4A6C0863509F0B4C0AE
:1023B000A2C01C861B86B7C08A85863509F448C032
:1023C00030F48431A9F1803409F457C0ACC08C38A2
:1023D00031F08E3869F1863809F0A5C005C020E0DB
:1023E00040E050E066E89CC08A819B81009759F0EC
:1023F000DC01ED91FC910190F081E02D409187038B
:1024000068E873E0099588819981009759F0DC01AB
:10241000ED91FC910190F081E02D40E468E873E0DB
:10242000099501C080E0282F48E853E06EE878C0A5
:10243000888599858130910509F058C028E042EEE1
:1024400051E066E5CE010E94E110198708876BC054
:102450008C819D81009759F0DC01ED91FC910190F8
:10246000F081E02D40E468E873E0099501C080E068
:10247000282F48E853E060E453C08E819F81009785
:1024800081F1DC01ED91FC910190F081E02D409112
:10249000870368E873E0099524C08D859E85AF8524
:1024A000B889892B8A2B8B2BF1F18091C80381117C
:1024B00002C00E948A0E80ED93E00E94FB010D8510
:1024C0001E852F853889DC01CB01801B910BA20B67
:1024D000B30B89359240A105B10528F1CE010E94C8
:1024E000B210888599858130910551F0823091052F
:1024F00099F0892BC1F428E042EE51E066E510C066
:1025000028E042EE51E066E5CE010E94E11082E053
:1025100090E09987888707C025E24AEE51E06CE891
:10252000CE010E94E11081E0DF91CF911F910F91C8
:1025300008958F929F92AF92BF92CF92EF92FF92A7
:102540000F9380916E0005B544B58160C82E03607D
:10255000436080E18F9386E4882E912C95E3A92E29
:10256000B12C2EE6E22EF12C25E430E064E470E09C
:1025700080ED93E00E94A70181E08093C8030F9053
:102580000F91FF90EF90CF90BF90AF909F908F9062
:102590000895863030F4E82FF0E0E85EFD4F80814A
:1025A000089588E5089588B16F70807F682B68B9B9
:1025B0000895DF92EF92FF920F931F93CF93DF93D3
:1025C0007C01C62FD42ED22F40E00E94CD19882343
:1025D00031F06D2DC7010E94051A81112AC080E0DB
:1025E000D12C6D2F70E0EB0121976D2D70E06C17F1
:1025F0007D0754F4882331F0600F711F41E0C7015B
:102600000E94161AD394F1CF8823C9F0B8016C0F39
:102610007D1F40E0C7010E94161A882381F0C70180
:10262000DF91CF911F910F91FF90EF90DF900C946D
:10263000821941E06C2FC7010E949D19D1CF80E023
:10264000DF91CF911F910F91FF90EF90DF90089550
:10265000FF920F931F93CF93DF931F92CDB7DEB7F7
:102660001982FC01F1800E9485008E010F5F1F4FCF
:1026700021E040E06F2D0E94D912898180950F9052
:10268000DF91CF911F910F91FF900895DF92EF920C
:10269000FF920F931F93CF93DF937C01C42FD22E11
:1026A00040E00E94CD19882321F06C2FC7010E94C1
:1026B000051AE8010D0D111DC017D10741F088233F
:1026C00021F06881C7010E94051A2196F5CF882361
:1026D00051F0C701DF91CF911F910F91FF90EF90C3
:1026E000DF900C94821980E0DF91CF911F910F91C0
:1026F000FF90EF90DF900895CF92DF92EF92FF92DC
:102700000F931F93CF93DF9300D0CDB7DEB77C013B
:10271000D62EFC01C0800E9485008E010E5F1F4FE7
:1027200021E041E06C2D0E94D91221E030E001C08F
:10273000220FDA94EAF71A81122B1A83882369F0A0
:10274000F701F0800E94850019838E010F5F1F4FF3
:1027500021E041E06F2D0E9446130F900F90DF9112
:10276000CF911F910F91FF90EF90DF90CF90089540
:10277000CF92DF92EF92FF920F931F93CF93DF934D
:1027800000D0CDB7DEB77C01D62EFC01C0800E9400
:1027900085008E010E5F1F4F21E041E06C2D0E94ED
:1027A000D91221E030E001C0220FDA94EAF7209537
:1027B0001A8112231A83882369F0F701F0800E949E
:1027C000850019838E010F5F1F4F21E041E06F2DBF
:1027D0000E9446130F900F90DF91CF911F910F91A0
:1027E000FF90EF90DF90CF900895BF92CF92DF924D
:1027F000EF92FF920F931F93CF93DF9300D0CDB74B
:10280000DEB77C0180E2F701808381E2818311865B
:10281000108687B18F6087B968E0C7010E94D31224
:10282000F701D0800E94850020EC29838E010F5F84
:102830001F4F21E043E06D2D0E944613F701D08029
:102840000E9485001A820F5F1F4F21E041E06D2D2D
:102850000E9446130E9485000E947F1906E011E045
:102860006701F2E0CF0ED11CF801B1908F016B2D02
:10287000C7010E94D3128091C803811102C00E9437
:1028800099124AE050E060E070E080ED93E00E9431
:10289000410245983D9A3D98459A8091C80381111F
:1028A00002C00E9499124AE050E060E070E080EDC2
:1028B00093E00E944102359B14C0F7016085718549
:1028C0006630710570F46C0D7D1D81E090E00E9412
:1028D0002A1AFC01B082F7018085918501969187C3
:1028E0008087F1E00C301F0709F0BECF68E0C70118
:1028F0000E94D3120F900F90DF91CF911F910F91F3
:10290000FF90EF90DF90CF90BF9008958AB18F73C2
:102910008AB98BB18F738BB9ECE7F0E08081806E60
:102920008083EAE7F0E0808186688083089589B13A
:1029300086FB882780F9089589B1881F8827881F1A
:1029400008955C9A549A089580917C00807F682B4A
:1029500060937C0080917A00806480937A008091FB
:102960007A0086FDFCCF80917900089567E00E948F
:10297000A41421E1829FC0011124089568E00E94FF
:10298000A41490E00895AF92BF92CF92DF92EF929D
:10299000FF920F931F93CF93DF937C018C01045719
:1029A0001F4FF801118210820E94BC06EC01229692
:1029B000FC01C084D184CC0EDD1EF2E0EF0EF11CD0
:1029C00087E1B82ECC16DD0621F1F80180819181D6
:1029D00086309105E0F4A880B89EB001B99E700DD4
:1029E00011246E0D7F1D87E190E00E942A1AFC01E0
:1029F00010821182128213821482A58206960E948E
:102A0000BA0EF8018081918101969183808321968D
:102A1000D9CFDF91CF911F910F91FF90EF90DF9071
:102A2000CF90BF90AF9008952C013C0182E0680EDA
:102A3000711C12019CE8290E311C8091C803811180
:102A40001FC080916E0005B544B58160C82E03603B
:102A50004360A0E1AF9386E4882E912C95E3A92EE4
:102A6000B12C2EE6E22EF12C25E430E064E470E097
:102A700080ED93E00E94A701B1E0B093C8030F90EE
:102A800080ED93E00E94FB016B017C010E94BC067B
:102A90000E942813D301F10140815181F7E1F49F95
:102AA0009001F59F300D1124260D371DF301C0E074
:102AB000D0E0082F10E0E217F307F1F080818823BF
:102AC000C9F0C801058002C0959587950A94E2F780
:102AD00080FF10C0209769F081809280A380B4802D
:102AE00049815A816B817C8184169506A606B706BA
:102AF00008F4EF017796DFCF209769F0C982DA8278
:102B0000EB82FC820D810E94BC06602F0E94D312D2
:102B100062E070E069C0F301E217F30709F1808118
:102B200081111CC04181528163817481460157012A
:102B3000841A950AA60AB70A85E688169104A104A4
:102B4000B10460F0209749F089809A80AB80BC8006
:102B5000481559056A057B0508F4EF017796DCCF27
:102B6000209789F0C982DA82EB82FC820D810E9473
:102B7000BC06602F0E947C1391E098835ECF8C91FD
:102B8000811105C05796A217B307C9F71FC0119648
:102B90004D915D916D917C91149746015701841A76
:102BA000950AA60AB70AE5E68E169104A104B104B7
:102BB00048F3209749F089809A80AB80BC80481503
:102BC00059056A057B05F0F6ED01DCCF2097D1F0C1
:102BD000C982DA82EB82FC820D810E94BC06602FE2
:102BE0000E94D31260E070E0CE0106960E949D1113
:102BF000811123CF0D810E94BC06602F0E94B81363
:102C000018821BCFD2018D919C91009709F415CFAA
:102C1000DC01ED91FC910190F081E02DB701A6015E
:102C200009950BCFCF93DF93FC01A281B381189656
:102C3000CD91DC911997688179815D968D919C91F8
:102C40005E9701965E969C938E935D975C969C91A1
:102C50005C9712960D90BC91A02D8C91992339F020
:102C60008F7B8C93A281B3815C961C9207C0806499
:102C70008C93A281B38180E85C968C93A281B3810E
:102C800050968C91509781112EC0911184C01C9642
:102C9000CD91DC911D9757968D919C915897860FF9
:102CA000971F9983888316960D90BC91A02D84E080
:102CB0008C93A281B38114960D90BC91A02D8C9120
:102CC00084608C930280F381E02D828993899C013A
:102CD00036952795620F731F860F971F968B858BEE
:102CE00081E0808B58C055962D913C915697A281DA
:102CF000B381AB01421B530B57FD47C05A969C91C1
:102D00005A9796955C964C915C97942B5A969C9307
:102D1000A281B38152964D915C915397240F351F38
:102D20008F5F893020F314960D90BC91A02D8C916B
:102D30008B7F8C93A281B3815F968C915F978F5F1D
:102D4000803408F080E090969C919097891759F014
:102D50005A969C915A97A80FB11D91969C93A28167
:102D6000B3815F968C93A281B38112960D90BC9132
:102D7000A02D8C918F7B8C93A281B3815C961C9249
:102D80000280F381E02D108A06C056963C932E9364
:102D9000559750968C93DF91CF910895CF93DF9301
:102DA000FC01A281B38151968C91519759964C9117
:102DB00059971A96CD91DC911B97288139818930DA
:102DC00068F552966D917C915397260F371F542FBB
:102DD000517046958F5F5B969C915B97591779F37D
:102DE0000D90BC91A02D9C91552311F0906C02C0C8
:102DF0009F7B90689C93A281B3811A96CD91DC91C0
:102E00001B97398328835B965C93A281B381599683
:102E10004C930280F381E02D818B57C0893059F4A7
:102E20008AE051968C93A281B3810D90BC91A02D24
:102E30008C91806C3DC0ED01CF59DF4F9881219678
:102E40008881981314C051961C92A281B3810D9071
:102E5000BC91A02D8C918F738C930280F381E02D17
:102E60000480F581E02D80818D7F80832EC091E0EC
:102E700051969C938F5F803408F080E0A281B381EB
:102E8000AE59BF4F8C93C281D381DE01A80FB11D13
:102E9000AD59BF4F8C91898FA281B3815B961C92F3
:102EA000A281B3810D90BC91A02D8C918F7B806805
:102EB0008C930280F381E02DA285B385828993896A
:102EC000280F391F11963C932E93DF91CF910895CF
:102ED000FC01A281B38114960D90BC91A02D8C9120
:102EE0008B7F8C93A281B38112960D90BC91A02D03
:102EF0008C918F7B8C93A281B38150969C9150973B
:102F00005C962C912058A281B381993048F45A964E
:102F10008C915A978695822B5A968C939F5FF3CF0C
:102F20005F968C915F978F5F803408F080E0909679
:102F30009C919097891759F05A969C915A97A80F8F
:102F4000B11D91969C93A281B3815F968C93A281CF
:102F5000B38150961C92A281B38112960D90BC91C0
:102F6000A02D8C918F7B8C930280F381E02D148EA9
:102F7000089522E232E0FC0131832083738362836F
:102F8000642F0C94330328E232E0FC013183208368
:102F900073836283642F0C9433032EE232E0FC01CE
:102FA0003183208373836283642F0C9433032F92C5
:102FB0003F924F925F926F927F928F929F92AF92C9
:102FC000BF92CF92DF92EF92FF920F931F93CF9316
:102FD000DF93CDB7DEB73C011A012B01DC0111965E
:102FE0003C932E9313961C930E9312971596FC9276
:102FF000EE9214971796DC92CE9216971996BC9281
:10300000AE9218971B969C928E921A978D899E89E4
:103010001D969C938E931C978F89988D1F969C93D9
:103020008E931E9750961C92509751961C925197D2
:1030300053961C921E92529754961C9254975696F1
:103040001C921E92559758961C921E92579759960D
:103050001C9259975A961C925A975B961C925B97B2
:103060005C961C925C975F961C925F9790961C9260
:10307000F301EF59FF4F10821182498DB301C30153
:103080008D559F4F0E94B9174A8DB301C3018955D1
:103090009F4F0E94C3174B8DB301C30185559F4FAE
:1030A0000E94CD17F301168E158ED201C101B6957F
:1030B000A79597958795BC01CD017E5E85489F4F6A
:1030C000A20191010E942C1A2D3AFBE13F07410514
:1030D000510580F4D3011496ED91FC91159710825F
:1030E000ED91FC91119710821296ED91FC9113973E
:1030F00081E81CC063E056954795379527956A95FA
:10310000D1F72D3ABBE13B074105510588F5D301C5
:103110001496ED91FC9115971082ED91FC91119709
:1031200010821296ED91FC91139782E88083F3014F
:10313000338B228BA5E2B0E00E944E1ADC01CB015A
:1031400022E0B695A795979587952A95D1F7908F08
:10315000878B2098289A219A299A0680F781E02D5A
:1031600080E28083D3011496ED91FC9115978083C2
:10317000DF91CF911F910F91FF90EF90DF90CF9053
:10318000BF90AF909F908F907F906F905F904F9087
:103190003F902F900895CF93DF93FC01DC01AF594E
:1031A000BF4F9C919F5F903408F090E0EF01CE59A3
:1031B000DF4F88818917E9F32FB7F8948189882335
:1031C00039F0E90FF11DED59FF4F60839C931EC04C
:1031D00081E0818B618F138EA681B78182E08C9311
:1031E000A481B5818C9182608C93A081B1818C91F6
:1031F0008F7B80688C93A285B3850684F785E02D4C
:1032000080819181409611969C938E932FBFDF9180
:10321000CF910895FC0191899111FDCF0895CF932D
:10322000DF93EC01EC81FD8180818B7F8083EC81D9
:10323000FD8180818F7D808388A18F8FCE010E9448
:103240000A19EC81FD8180818D7F8083DF91CF9190
:103250000895FC019FB7F89420A1878D281759F095
:1032600080A18F5F80A380A18F7380A380A1E80FCE
:10327000F11D81A101C08FEF9FBF0895FC01378D23
:1032800020A1321721F0E20FF11D81A108958FEFE7
:1032900008953FB7F894FC01278D90A13FBF81E0CE
:1032A000291301C080E00895FC0120A1278F089513
:1032B0000E94AE0668E50E94E7020E94AE0668E53D
:1032C0000E94E7020E94AE0668E50E94E7020E94A3
:1032D000AE066DE00E94E7020E94AE066AE00E9420
:1032E000E7021092BC0080E008951092B90082E0DD
:1032F0008093B800089584E08093BC0008951092F4
:10330000BC00089584E98093BC008FEF9FEF20916B
:10331000BC0024FF04C00197D1F70C94581981E038
:1033200008958FEF9FEF2091BC0027FD04C0019707
:10333000D1F70C94581981E008950F931F93CF9300
:10334000DF938C01D62FC42F84EA8093BC00C80180
:103350000E9491198823D9F08091B900887F883024
:1033600011F08031A1F4DD0FCD2BC093BB0084E8B8
:103370008093BC00C8010E949119882341F090916C
:10338000B900987F983121F081E0903409F080E015
:10339000DF91CF911F910F910895FF920F931F938B
:1033A000CF93DF93EC01660F162F142B04EA84E809
:1033B000F82E0093BC00CE010E949119811102C029
:1033C00080E01DC08091B900887F883011F0803185
:1033D00081F71093BB00F092BC00CE010E949119BE
:1033E000882371F39091B900987F903211F098354D
:1033F00031F4CE010E9482198111DBCFE1CFDF9140
:10340000CF911F910F91FF9008956093BB0024E826
:103410002093BC000E949119882339F09091B90043
:10342000987F81E0983209F080E00895CF93DF9390
:10343000EB01411102C024E801C024EC2093BC0040
:103440000E949119882319F09091BB009883DF9115
:10345000CF910895CB010895A1E21A2EAA1BBB1BA0
:10346000FD010DC0AA1FBB1FEE1FFF1FA217B30750
:10347000E407F50720F0A21BB30BE40BF50B661F66
:10348000771F881F991F1A9469F76095709580952A
:1034900090959B01AC01BD01CF0108950E94591A7E
:1034A000A59F900DB49F900DA49F800D911D112498
:1034B0000895A29FB001B39FC001A39F700D811D0D
:1034C0001124911DB29F700D811D1124911D08952D
:1034D0000F931F93CF93DF938230910510F482E016
:1034E00090E0E091E903F091EA0320E030E0A0E011
:1034F000B0E0309719F14081518102811381481762
:103500005907C8F08417950769F4109731F012969F
:103510000C93129713961C9327C00093E903109302
:10352000EA0322C02115310519F04217530718F498
:103530009A01BD01EF01DF01F801DBCF2115310553
:10354000F9F0281B390B2430310580F48A819B81E6
:103550006115710521F0FB019383828304C0909370
:10356000EA038093E903FE01329644C0FE01E20FB4
:10357000F31F8193919322503109398328833AC0F4
:103580002091E7033091E803232B41F420910201BD
:10359000309103013093E8032093E7032091000169
:1035A000309101012115310541F42DB73EB740910D
:1035B000040150910501241B350BE091E703F091C4
:1035C000E803E217F307A0F42E1B3F0B2817390777
:1035D00078F0AC014E5F5F4F2417350748F04E0F6F
:1035E0005F1F5093E8034093E7038193919302C0D8
:1035F000E0E0F0E0CF01DF91CF911F910F910895AE
:10360000CF93DF93009709F481C0FC0132971382B6
:103610001282A091E903B091EA03109781F420810E
:103620003181820F931F2091E7033091E80328171F
:10363000390751F5F093E803E093E70367C0ED0124
:1036400020E030E0CE17DF0740F44A815B819E0125
:1036500041155105F1F0EA01F5CFD383C2834081D2
:103660005181840F951FC817D90759F48881998112
:10367000840F951F0296918380838A819B81938317
:1036800082832115310529F4F093EA03E093E903DD
:103690003DC0E901FB83EA8349915991C40FD51FCD
:1036A000EC17FD0761F480819181840F951F0296CC
:1036B000E90199838883828193819B838A83E0E0F7
:1036C000F0E012968D919C911397009719F0FD01EF
:1036D000DC01F7CF8D919C9111979D012E5F3F4F9B
:1036E000820F931F2091E7033091E80328173907D1
:1036F00069F4309729F41092EA031092E90302C0AA
:1037000013821282B093E803A093E703DF91CF9175
:1037100008950F931F93CF93DF93009731F46115B2
:10372000710519F480E090E03AC08B01EC016EE085
:1037300070E081E090E00E94E51DFC01892B91F38F
:1037400080E883830115110571F01387028781E8F2
:1037500083838091EB039091EC03892B21F4F09308
:10376000EC03E093EB032097C9F0D187C0878381F6
:10377000826083838091ED039091EE03892B71F435
:10378000F093EE03E093ED038091EF039091F0034B
:10379000892B21F4F093F003E093EF03CF01DF9145
:1037A000CF911F910F910895AEE0B0E0EAEDFBE1FB
:1037B0000C94C61E0D891E898F89988D26E02C8356
:1037C0001A83098397FF02C080E090E801979E83E7
:1037D0008D83AE01455E5F4F698D7A8DCE01019676
:1037E0000E94041C4D815E8157FD0AC02F813885DF
:1037F000421753070CF49A01F801E20FF31F1082ED
:103800002E96E4E00C94E21EABE0B0E0EAE0FCE1CE
:103810000C94B81E6C017B018A01FC011782168290
:10382000838181FFCCC1CE0101963C01F6019381D9
:10383000F70193FD859193FF81917F01882309F41E
:10384000BAC1853239F493FD859193FF81917F014F
:10385000853229F4B60190E00E941E1EE7CF912C1C
:10386000212C312CFFE1F315D8F08B3279F038F4AC
:10387000803279F08332A1F4232D20611DC08D3276
:1038800061F0803369F4232D216016C0832D82609E
:10389000382EE32DE4603E2E2AC0F32DF8601DC0C3
:1038A00037FC2DC020ED280F2A3040F08E32B9F4BD
:1038B00036FC81C1232D2064322E19C036FE06C08D
:1038C0008AE0989E200D1124922E11C0EAE02E9ECF
:1038D000200D1124222EF32DF0623F2E08C08C36CD
:1038E00021F4832D8068382E02C0883641F4F70118
:1038F00093FD859193FF81917F018111B3CF982F23
:103900009F7D9554933028F40C5F1F4F9FE399835C
:103910000DC0833631F0833771F0833509F059C01B
:1039200021C0F801808189830E5F1F4F8824839412
:10393000912C530113C02801F2E04F0E511CF801E5
:10394000A080B18036FE03C0692D70E002C06FEF29
:103950007FEFC5010E94131E4C018201F32DFF77FA
:103960003F2E16C0280122E0420E511CF801A08013
:10397000B18036FE03C0692D70E002C06FEF7FEFAB
:10398000C5010E94011E4C01F32DF0683F2E8201FB
:1039900033FC1BC0822D90E088169906B0F4B60166
:1039A00080E290E00E941E1E2A94F4CFF50137FCBD
:1039B000859137FE81915F01B60190E00E941E1E45
:1039C00021102A9421E0821A91088114910471F740
:1039D000E8C0843611F0893641F5F80137FE07C09A
:1039E00060817181828193810C5F1F4F08C060816B
:1039F0007181072E000C880B990B0E5F1F4FF32D62
:103A0000FF763F2E97FF09C0909580957095619540
:103A10007F4F8F4F9F4FF0683F2E2AE030E0A30189
:103A20000E945A1E882E861845C0853731F4232DF2
:103A30002F7EB22E2AE030E025C0932D997FB92E3B
:103A40008F36C1F018F4883579F0B5C0803719F099
:103A5000883721F0B0C0E92FE061BE2EB4FE0DC062
:103A6000FB2DF460BF2E09C034FE0AC0292F26604A
:103A7000B22E06C028E030E005C020E130E002C0F0
:103A800020E132E0F801B7FE07C0608171818281D8
:103A900093810C5F1F4F06C06081718180E090E0D0
:103AA0000E5F1F4FA3010E945A1E882E8618FB2D01
:103AB000FF773F2E36FE0DC0232D2E7FA22E8914B8
:103AC00058F434FE0BC032FC09C0832D8E7EA82E24
:103AD00005C0B82CA32C03C0B82C01C0B92CA4FE7F
:103AE0000FC0FE01E80DF11D8081803321F49A2D75
:103AF000997EA92E09C0A2FE06C0B394B39404C057
:103B00008A2D867809F0B394A3FC11C0A0FE06C0EC
:103B1000B21488F4280C922C9B180EC0B21460F4D6
:103B2000B60180E290E00E941E1EB394F7CFB2145B
:103B300018F42B1802C0982C212CA4FE10C0B6013A
:103B400080E390E00E941E1EA2FE17C0A1FC03C0ED
:103B500088E790E002C088E590E0B6010CC08A2DAD
:103B6000867859F0A1FE02C08BE201C080E2A7FC7A
:103B70008DE2B60190E00E941E1E891438F4B60151
:103B800080E390E00E941E1E9A94F7CF8A94F3017E
:103B9000E80DF11D8081B60190E00E941E1E81108B
:103BA000F5CF222009F442CEB60180E290E00E94D7
:103BB0001E1E2A94F6CFF6018681978102C08FEFF0
:103BC0009FEF2B96E2E10C94D41E0F931F93CF939B
:103BD000DF93869F8001879F100D969F100D112403
:103BE000C8010E94681AEC01009729F0A80160E062
:103BF00070E00E940C1ECE01DF91CF911F910F91BA
:103C00000895FC010590615070400110D8F780952F
:103C100090958E0F9F1F0895DC0101C06D93415058
:103C20005040E0F70895FC01615070400190011090
:103C3000D8F7809590958E0F9F1F08950F931F932F
:103C4000CF93DF93FB01238121FD03C08FEF9FEF13
:103C50002CC022FF16C0468157812481358142172E
:103C6000530744F4A081B1819D012F5F3F4F318301
:103C700020838C93268137812F5F3F4F37832683A4
:103C800014C08B01EC01FB010084F185E02D099546
:103C9000892BE1F6D80116968D919C911797019684
:103CA00017969C938E931697CE01DF91CF911F911B
:103CB0000F910895FA01AA27283051F1203181F19E
:103CC000E8946F936E7F6E5F7F4F8F4F9F4FAF4F24
:103CD000B1E03ED0B4E03CD0670F781F891F9A1F37
:103CE000A11D680F791F8A1F911DA11D6A0F711DEB
:103CF000811D911DA11D20D009F468943F912AE0F7
:103D0000269F11243019305D3193DEF6CF010895DE
:103D1000462F4770405D4193B3E00FD0C9F7F6CF0F
:103D2000462F4F70405D4A3318F0495D31FD4052D7
:103D3000419302D0A9F7EACFB4E0A695979587956D
:103D400077956795BA95C9F700976105710508954C
:103D50009B01AC010A2E06945795479537952795F8
:103D6000BA95C9F7620F731F841F951FA01D089590
:103D70002F923F924F925F926F927F928F929F927B
:103D8000AF92BF92CF92DF92EF92FF920F931F9369
:103D9000CF93DF93CDB7DEB7CA1BDB0B0FB6F8941A
:103DA000DEBF0FBECDBF09942A88398848885F845A
:103DB0006E847D848C849B84AA84B984C884DF80CB
:103DC000EE80FD800C811B81AA81B981CE0FD11DAF
:103DD0000FB6F894DEBF0FBECDBFED0108950E946F
:063DE0005300F894FFCF30
:103DE6000000F103200000010203040503020300A2
:103DF6000000040305010402040005020105030492
:103E0600010500040205000102030003020100038C
:103E1600020300010504000000006F01000000001D
:103E26007B02000000006D02A55A2575002563255A
:103E3600642F256325640025633A20253573200009
:103E46001B5B316D5B2530356C755D20001B5B316E
:103E56006D256420001B5B306D0D0A00256425640A
:103E66002F25642564001B5B316D256320005246B7
:103E76004C505442000000001B06000000004006A3
:103E8600000000005E06000000008506000000003D
:103E9600C80A52330D0A0052340D0A0052350D0A73
:103EA6000052363A203078253032780D0A005237E3
:103EB6000D0A0052310D0A0052320D0A0052380D19
:103EC6000A0001020000000000000004001234563F
:103ED6004001FEA2A3A4A5A6A7C0C1C2C3C4C5C66D
:103EE600C7FFFFAA9988776655443322110000015F
:103EF60014010000FF00FF004E45535754420000D6
:103F06000000121600000000CE1600000000681720
:00000001FF
