:100000000C9434000C943C030C9451000C9451005B
:100010000C9451000C9451000C9451000C9451001C
:100020000C9451000C9451000C946B030C949A03A3
:100030000C94C9030C9451000C9451000C94510081
:100040000C94F8030C9451000C9427040C9456045F
:100050000C9451000C9451000C9451000C945100DC
:100060000C9451000C94510011241FBECFEFD8E026
:10007000DEBFCDBF12E0A0E0B1E0EEE8F0E402C0E8
:1000800005900D92AA34B107D9F724E0AAE4B2E0B2
:1000900001C01D92AB30B207E1F70E94B00F0C9483
:1000A00043200C940000A0914A02B0914B0210979B
:1000B00069F0ED91FC91119712968D919C91139797
:1000C00090934B0280934A020995EDCF0895CF9308
:1000D000DF93EC0184E090E00E94BC1B009781F06C
:1000E000FC01D183C08320914A0230914B023383BB
:1000F000228390934B0280934A0280E090E002C0FA
:1001000081E090E0DF91CF91089580914C028111C0
:1001100007C084E592E00E94C91A81E080934C02F6
:1001200084E592E00895DF92EF92FF920F931F9380
:10013000CF93DF937C01C62FD42ED22F40E00E94B4
:10014000211B882331F06D2DC7010E94591B81119D
:100150002AC080E0D12C6D2F70E0EB0121976D2D2E
:1001600070E06C177D0754F4882331F0600F711F25
:1001700041E0C7010E946A1BD394F1CF8823C9F0E4
:10018000B8016C0F7D1F40E0C7010E946A1B8823E5
:1001900081F0C701DF91CF911F910F91FF90EF90F8
:1001A000DF900C94D61A41E06C2FC7010E94F11A1F
:1001B000D1CF80E0DF91CF911F910F91FF90EF9011
:1001C000DF900895FF920F931F93CF93DF93CDB7E6
:1001D000DEB72C970FB6F894DEBF0FBECDBFFC0183
:1001E000F1800E9485008E01095F1F4F26E04BE3DE
:1001F0006F2D0E9493006B857C8576276727762775
:1002000049855A855427452754272F813885322719
:10021000232732273A8329835C834B837E836D8334
:100220003A815C817E8180E090E02C960FB6F89454
:10023000DEBF0FBECDBFDF91CF911F910F91FF9019
:100240000895DF92EF92FF920F931F93CF93DF9366
:100250001F92CDB7DEB77C0181E0F701808388E68D
:1002600081830E9485008E010F5F1F4F21E045E7CB
:1002700068E60E949300882331F081E0F701218134
:100280009981291380E0F7018083882331F1D1809F
:100290000E9485008C0140E06D2D0E94211B882367
:1002A000E1F06BE6C8010E94591B8823B1F060E0C1
:1002B000C8010E94591B882381F0C8010E94D61AE8
:1002C000882359F0F70180830F90DF91CF911F9120
:1002D0000F91FF90EF90DF90089580E0F3CFDC0165
:1002E0001296ED91FC911397468557856089718927
:1002F000828996E0980F9D3728F44E5F5F4F6F4FCD
:100300007F4F06C099E8980F4D5F5F4F6F4F7F4F4B
:10031000928B1296ED91FC91139746875787608BCD
:10032000718B82859385A485B5850196A11DB11D2C
:1003300082879387A487B58708952DE331E0FC0178
:100340003183208373836283642F0C9433036F9211
:100350007F928F929F92AF92BF92CF92EF92FF9235
:100360000F931F93CF93DF93CDB7DEB73C01142FCC
:10037000DC0111967C936E9313963C932E93129707
:100380001596FC92EE9214971796BC92AE92169721
:1003900019969C928E921897FC01128613861486E9
:1003A00015861E961D921D921D921C925197529673
:1003B0001C924889BC0143960E949D01D301ED9196
:1003C000FC91119710831296ED91FC911397008385
:1003D0001496ED91FC911597C082DF91CF911F91FA
:1003E0000F91FF90EF90CF90BF90AF909F908F9024
:1003F0007F906F900895CF92DF92EF92FF92CF930C
:10040000DF93EC010E9485040E949204CE84DF8475
:10041000E888F9880E9485040E949B04C701B60100
:10042000DF91CF91FF90EF90DF90CF900895FC0186
:100430008FB7F8944285538564857585A085B1850D
:100440002C910680F781E02D908190FF02C02F3F14
:1004500099F48FBFB62FA52F942F8827820F911D57
:10046000A11DB11DBC01CD0123E0660F771F881FC0
:10047000991F2A95D1F708954F5F5F4F6F4F7F4FB8
:10048000E8CFCF92DF92EF92FF920F931F93CF931B
:10049000DF938C016A017B010E941702EB01C114FA
:1004A000D104E104F10481F0C8010E9417026C1B21
:1004B0007D0B683E734098F381E0C81AD108E108CB
:1004C000F108C851DC4FEBCFDF91CF911F910F9115
:1004D000FF90EF90DF90CF900895FC018091C600CF
:1004E00094819F5F9F712581921721F09483E90F7A
:1004F000F11D86830895FC0194818581981751F040
:1005000085818F5F8F718583E80FF11D86818093D0
:10051000C60008958091C1008F7D8093C100089529
:1005200023E431E0FC0131832083738362831482EE
:10053000158263E10C94330329E431E0FC0131833B
:100540002083738362831482158262E10C943303E7
:10055000CF93DF93EC01BC010E949002BE01CE015B
:1005600086960E949C021092C50088E08093C40089
:1005700088E98093C10086E08093C200DF91CF912B
:100580000895FC0194818581981751F095819F5FB2
:100590009F71DF01A90FB11D16968C919583089567
:1005A0008FEF0895CF93DF93EC010E9485040E94A2
:1005B00092049C818D81C1E0981301C0C0E00E942B
:1005C00085040E949B048C2FDF91CF910895FC013C
:1005D00094819F5F9F7185819817E9F3DF01A90FCF
:1005E000B11D16966C9394838091C10080628093B4
:1005F000C1000895CF93C82F80915F02811107C079
:1006000087E692E00E94A80281E080935F026C2F4F
:1006100087E692E00E94E70280E090E0CF910895A3
:10062000CF93DF93CDB7DEB78091570281110DC014
:1006300060E070E08AEF92E00E94DD1C9093560229
:100640008093550281E080935702AE01475F5F4F70
:100650006F81788580915502909156020E94581DB5
:10066000DF91CF910895E62FF0E0EE0FFF1FE554E4
:10067000FD4F9183808308951F920F920FB60F92C2
:1006800011242F933F934F935F936F937F938F9397
:100690009F93AF93BF93EF93FF938091BD0290918F
:1006A000BE02009739F0DC01ED91FC910190F081E0
:1006B000E02D0995FF91EF91BF91AF919F918F919F
:1006C0007F916F915F914F913F912F910F900FBE4E
:1006D0000F901F9018951F920F920FB60F92112432
:1006E0002F933F934F935F936F937F938F939F933A
:1006F000AF93BF93EF93FF938091CF029091D0027D
:10070000009739F0DC01ED91FC910190F081E02D32
:100710000995FF91EF91BF91AF919F918F917F913B
:100720006F915F914F913F912F910F900FBE0F905E
:100730001F9018951F920F920FB60F9211242F93AE
:100740003F934F935F936F937F938F939F93AF9359
:10075000BF93EF93FF938091D1029091D2020097C3
:1007600039F0DC01ED91FC910190F081E02D0995CB
:10077000FF91EF91BF91AF919F918F917F916F9179
:100780005F914F913F912F910F900FBE0F901F904F
:1007900018951F920F920FB60F9211242F933F932B
:1007A0004F935F936F937F938F939F93AF93BF9379
:1007B000EF93FF938091D3029091D402009739F088
:1007C000DC01ED91FC910190F081E02D0995FF9104
:1007D000EF91BF91AF919F918F917F916F915F91B9
:1007E0004F913F912F910F900FBE0F901F90189532
:1007F0001F920F920FB60F9211242F933F934F9396
:100800005F936F937F938F939F93AF93BF93EF9378
:10081000FF938091DB029091DC02009739F0DC01BC
:10082000ED91FC910190F081E02D0995FF91EF9100
:10083000BF91AF919F918F917F916F915F914F91F8
:100840003F912F910F900FBE0F901F9018951F9200
:100850000F920FB60F9211242F933F934F935F93F4
:100860006F937F938F939F93AF93BF93EF93FF9378
:100870008091DF029091E002009739F0DC01ED9168
:10088000FC910190F081E02D0995FF91EF91BF91CE
:10089000AF919F918F917F916F915F914F913F9118
:1008A0002F910F900FBE0F901F9018951F920F92CF
:1008B0000FB60F9211242F933F934F935F936F9333
:1008C0007F938F939F93AF93BF93EF93FF93809109
:1008D000E1029091E202009739F0DC01ED91FC9188
:1008E0000190F081E02D0995FF91EF91BF91AF91BB
:1008F0009F918F917F916F915F914F913F912F9138
:100900000F900FBE0F901F9018958091B502811126
:1009100006C081E08093B40278948093B50283EBA3
:1009200092E00895FC018181882321F08FB78083B4
:10093000F89411820895FC018181811104C081E045
:10094000818380818FBF089521E0FC012183789409
:100950000895DF92EF92FF920F931F93CF93DF934F
:100960007C01C42FD22E40E00E94211B882321F05D
:100970006C2FC7010E94591BE8010D0D111DC017F6
:10098000D10741F0882321F06881C7010E94591BDB
:100990002196F5CF882351F0C701DF91CF911F91A8
:1009A0000F91FF90EF90DF900C94D61A80E0DF91CA
:1009B000CF911F910F91FF90EF90DF900895FF92DC
:1009C0000F931F93CF93DF9300D0CDB7DEB7182FCF
:1009D000F62E0E9485001A838E010E5F1F4F21E0C4
:1009E00043E168E10E94A904882359F00E94850030
:1009F000F9820150110921E042E168E10E94A90455
:100A000001C080E00F900F90DF91CF911F910F9167
:100A1000FF900895DF92EF92FF920F931F93CF9371
:100A2000DF937C01C42FD22E40E00E94211B88233B
:100A300021F06C2FC7010E94591BE8010D0D111DFB
:100A4000C017D10741F0882321F06881C7010E94B7
:100A5000591B2196F5CF882351F0C701DF91CF9123
:100A60001F910F91FF90EF90DF900C94D61A80E0C9
:100A7000DF91CF911F910F91FF90EF90DF9008953C
:100A8000CF92DF92FF920F931F93CF93DF9300D00B
:100A9000CDB7DEB7182F062F8695869524E1F22E66
:100AA000F80E0E9485006C0140E068E10E94211B65
:100AB0008823E9F16F2DC6010E94591B8823B9F1E3
:100AC00041E068E1C6010E94F11A882381F140E00B
:100AD000BE016E5F7F4FC6010E946A1B882339F1F9
:100AE000C6010E94D61A1370212F30E0220F331F47
:100AF00063E070E0022E01C0660F0A94EAF7609589
:100B00001A811623602F01C0660F2A95EAF7162B6B
:100B10001A83882371F00E94850019838E010F5F6C
:100B20001F4F21E04F2D68E10E940A0502C080E0BE
:100B3000DACF0F900F90DF91CF911F910F91FF901F
:100B4000DF90CF9008950F931F93CF93DF931F9261
:100B5000CDB7DEB7182F062F0E948500098342E02B
:100B6000410F8E010F5F1F4F21E068E10E940A05CF
:100B70000F90DF91CF911F910F9108950F931F93C5
:100B8000CF93DF9300D0CDB7DEB70E9485008C01F4
:100B900040E063E00E94211B8823D1F165EAC8018F
:100BA0000E94591B8823A1F16AE5C8010E94591BC4
:100BB000882371F1C8010E94D61A882349F10E9446
:100BC00085001A828E010E5F1F4F21E040E068E130
:100BD0000E94A9048823E1F00E94850025E2298370
:100BE0008E010F5F1F4F21E041E068E10E94A904E0
:100BF000882371F060E888E10E94DF0410E0882318
:100C000049F060E0812F0E94400581110EC002C0B2
:100C100080E0F4CF80E01F5F143089F70F900F90D1
:100C2000DF91CF911F910F91089560E0812F0E9475
:100C3000A305F1CF0895CF93DF93FC0187858F5FE4
:100C40008787DB018C918383813511F481E0828376
:100C500020E0A42FB0E01197822F90E08A179B0725
:100C600054F4EB01C80FD91F3981EF01C80FD91F08
:100C70003C832F5FF1CF41504687DF91CF9108959C
:100C8000FC0186818F5F86838281DB018C9390E0FB
:100C90008581981788F4A381B481109759F09D013C
:100CA0002F5F3F4F348323838C91DB01A90FB11D4C
:100CB00011968C939F5FECCF8F5F0895FC01808528
:100CC0008F5F8087A281B38113968C918135B9F4AF
:100CD00082E5848380E09781891788F4A581B681B5
:100CE000109759F09D012F5F3F4F368325839C91CC
:100CF000DB01A80FB11D11969C938F5FECCF84810F
:100D0000DB018C9387818F5F0895CF93DF93FC0184
:100D100080898F5F808BDB019C9192839235C1F437
:100D20008B30B0F081E08383848320E0A42FB0E097
:100D30001197822F90E08A179B0754F4EB01C80F9C
:100D4000D91F3981EF01C80FD91F3D832F5FF1CF24
:100D500041504787DF91CF910895089580915F02B8
:100D6000811107C087E692E00E94A80281E080938B
:100D70005F0287E692E0089580918F0381110BC096
:100D800087E993E00E94491581E080938F038DEA03
:100D900096E00E94670087E993E008958091F90248
:100DA00081110BC081E093E00E94171681E08093CF
:100DB000F9028AE196E00E94670081E093E00895DD
:100DC0008091EF02811107C087EF92E00E9421011C
:100DD00081E08093EF0287EF92E008950F931F93D5
:100DE000CF93DF93082F162FD42FC0E0602F8C2FC6
:100DF0000E94A305612F81E08C0F0E94A3056D2F37
:100E000082E08C0F0E94A305CC5FC03179F7DF919F
:100E1000CF911F910F910895CF93DF93D82FC0E00A
:100E20006D2F8C2F0E9440056D2F81E08C0F0E944A
:100E300040056D2F82E08C0F0E94400560E083E04A
:100E40008C0F0E944005CC5FC03151F7DF91CF91EC
:100E50000895CF93883061F0C82F0E94BC066C2F94
:100E60000E94271443E060E083E0CF910C94EE06EB
:100E7000CF910895CF93883061F0C82F0E94BC06AF
:100E80006C2F0E94271440E061E085E0CF910C9424
:100E9000EE06CF910895CF93883061F0C82F0E945D
:100EA000BC066C2F0E94271443E063E080E0CF91E2
:100EB0000C94EE06CF910895CF93883061F0C82F3F
:100EC0000E94BC066C2F0E94271440E060E080E086
:100ED000CF910C94EE06CF910895EF92FF920F936D
:100EE0001F93CF93DF93CDB7DEB762970FB6F89419
:100EF000DEBF0FBECDBF0E94E0060E94E2002D873C
:100F00003E87ED84FE840E94E0060E94E20049874D
:100F10005A8709851A850E94E0060E94E2006D83C7
:100F20007E832D813E81C701F7FE04C08827992763
:100F30008E199F09813197422CF01E141F0424F052
:100F400082E003C088E001C080E0A80117FF04C070
:100F500044275527401B510B4131574234F010169E
:100F6000110614F081E001C083E0A90137FF04C03D
:100F700044275527421B530B4131574234F0121678
:100F8000130614F085E001C084E062960FB6F89471
:100F9000DEBF0FBECDBFDF91CF911F910F91FF90AC
:100FA000EF9008952F923F924F925F926F927F92AF
:100FB0008F929F92AF92BF92CF92DF92EF92FF9269
:100FC0000F931F93CF93DF93EC0189EC91E099830A
:100FD00088838E010C5C1E4FD8011D921C92FE016D
:100FE000EA5CFE4F108211821282138234961082C4
:100FF000118212821382349610821182128213821D
:1010000034968AE0DF01282F1D922A95E9F73A9657
:10101000DF01282F1D922A95E9F73A961082319622
:1010200010823196108211821282138234961082BD
:101030001182128213823496108231961082319678
:1010400098E0908331969083319626E0DF01322F2D
:101050001D923A95E9F790833696DF011D922A9505
:10106000E9F73696DF011D928A95E9F73A961082E4
:10107000319610820E94CE064C01B2E08B0E911C7C
:10108000FC01E457FF4F2081318147E1429FC001BD
:10109000439F900D11247401E80EF91E2E01E2E029
:1010A0004E0E511C83E3282E93EC692E91E0792E8D
:1010B00025E4322E37EBC32E31E0D32E4DEBA42E98
:1010C00041E0B42E8E149F0409F45BC0D8018D91C9
:1010D0009C918630910508F050C0289EB001299E51
:1010E000700D1124640D751D83E390E00E947E1B3A
:1010F000FC01918280827382628234821582168220
:10110000118A128A9C012D5E3F4F81EB91E0948BF6
:10111000838B158A368A11A212A2D4A2C3A235A249
:1011200010A611A6B3A6A2A635A724A736A611AA73
:1011300012AAD8018D919C91119701968D939C9341
:101140003097D9F0CF010296D4011D969C938E93CF
:101150001C97A081B18119963C932E931897A0817A
:10116000B18181961B969C938E931A97A081B18131
:10117000BA961796FC93EE931697B7E18B0E911CD7
:10118000A1CF0E94CE067C01E2E0EE0EF11CFC0134
:10119000E457FF4F8081918127E1289F6001299FBB
:1011A000D00C1124CE0CDF1CCE14DF0471F0D7015B
:1011B0001596BC900E94BC066B2D0E9427140E94BD
:1011C000BE05B7E1EB0EF11CEFCF2296F80180814E
:1011D000918123E3289F8001299F100D11240C0F7A
:1011E0001D1F0C171D0791F0E881F981F5800E9401
:1011F000BC066F2D0E94271482E00E940C0743E07A
:1012000060E083E00E94EE06E396EBCFDF91CF91A2
:101210001F910F91FF90EF90DF90CF90BF90AF9014
:101220009F908F907F906F905F904F903F902F9006
:1012300008950F931F93CF93DF93CDB7DEB7A49795
:101240000FB6F894DEBF0FBECDBF2EE1ECE0F1E0AB
:10125000DE01119601900D922A95E1F726E0EAE26F
:10126000F1E0DE015F9601900D922A95E1F7FC0115
:10127000E959FE4F60833297AFE1B0E0AC0FBD1F7C
:10128000A60FB11D2C91208333964083A42FB0E08C
:101290008C0107591E4F2FE130E02C0F3D1F2A0F04
:1012A0003B1FF9012081F8012083F5E04F9FA00149
:1012B000112420E030E0F901E40FF51F01E010E017
:1012C0000C0F1D1FE00FF11F708167131CC065E03C
:1012D0006A9FA0016B9F500D1124400F511FFA010E
:1012E000E20FF31F2181FC01EA59FE4F2083DC014C
:1012F000AC59BE4FEFE1F0E0EC0FFD1FE20FF11D26
:1013000020812C9305C02F5F3F4F2430310599F683
:10131000A4960FB6F894DEBF0FBECDBFDF91CF917C
:101320001F910F9108952F923F925F926F927F923B
:101330008F929F92AF92BF92CF92DF92EF92FF92E5
:101340000F931F93CF93DF93DC01AC59BE4F40E066
:1013500050E0912C812C9C012E5F3F4F8C010C5C46
:101360001E4FE3E37E2EAA24A394B12C7901E80159
:10137000E881F9817E9EE0017F9ED00D11241E013F
:10138000220E331E642EF701E214F30429F1D3E395
:10139000ED0EF11CC080D1805C90E601DD805D1017
:1013A000F2CFC681CC23C1F0E50101C0CC0F6A9415
:1013B000EAF78C2AF92CCF2DC919D189CD1758F409
:1013C0006F01CC0ED11CE601EF80EB01CF0DD11DDA
:1013D000E882F394F0CF9F2C4F5F5F4F1196463019
:1013E000510521F641E0490DFB01E90DF11D808217
:1013F000FC01E05AFE4F8081811119C0F901D8012A
:101400008D919C9153E3589F9001599F300D112469
:101410002E0F3F1F82E5E217F30749F095899923C4
:1014200021F086A741AB70AB67A7F396F4CF842F6A
:10143000DF91CF911F910F91FF90EF90DF90CF90B0
:10144000BF90AF909F908F907F906F905F903F90F4
:101450002F9008952F923F924F925F926F927F92BA
:101460008F929F92AF92BF92CF92DF92EF92FF92B4
:101470000F931F93CF93DF936B01442EFB0180806A
:101480007C01F7E9EF1AFEEFFF0AC5E0D0E0612C1E
:10149000912C8C010E5F1F4F5C012CECA21A2EEFD9
:1014A000B20A83E3582E91E5792EC4010C2E02C0B6
:1014B000959587950A94E2F780FF64C09801F5013D
:1014C00040815181549EC001559E900D1124800F82
:1014D000911FD9012817390709F44BC02D5C3F4FE4
:1014E000ED91FC9111975581F70140815413F1CF93
:1014F000C601019695967C92959797969C938E93AC
:101500009697F6014181E0E025E030E050E0BA0135
:10151000022E02C0759567950A94E2F760FDEF5FB1
:1015200021503109A0F7AC014E0F511DFC01E41709
:10153000F507B1F031966081612C25E030E0262E70
:10154000312C6101022E02C0D594C7940A94E2F7AF
:10155000C0FC639421503109A0F7460D511DE7CF1F
:10156000E81BF90B6E2EE41528F4EF5F9896EC93C8
:1015700001C0C6016C01C60CD11CF70180810E941C
:10158000290704C0F70180810E944B072197F1E0F1
:10159000EF1AF108CF3F2FEFD20709F086CFDF9186
:1015A000CF911F910F91FF90EF90DF90CF90BF9060
:1015B000AF909F908F907F906F905F904F903F90F3
:1015C0002F9008952F923F924F925F926F927F9249
:1015D0008F929F92AF92BF92CF92DF92EF92FF9243
:1015E0000F931F93CF93DF93CDB7DEB765970FB6F9
:1015F000F894DEBF0FBECDBF8C014A015B010E9493
:101600006D0768012EE9C21A2EEFD20AD6018C931B
:101610003801BFE96B1ABEEF7B0AF3019081992371
:1016200021F0913009F444C050C1F801E05AFE4F56
:101630009081992361F093E033969083482F63E083
:10164000C8010E94190981E0D3018C933EC1780141
:10165000B2E0EB0EF11CF801EC5CFE4F8081918151
:1016600023E3289F2001299F500C11244E0C5F1C5E
:101670001801EDE92E1AEEEF3E0AE414F50409F420
:1016800024C1D70155968C915597882369F0ED9127
:10169000FC916581F1016083D6014C91C8010E94E3
:1016A000190921E0F301208333E3E30EF11CE5CFB8
:1016B000180140EA241A4EEF340AD1018C918111AD
:1016C00064C0B8016E5B7E4F6801B2E0CB0ED11CE6
:1016D00076012801ECEC4E1AEEEF5E0AD2018D91F4
:1016E0009C9143E3489F9001499F300D1124F901DB
:1016F000EC0DFD1DFB8BEA8BF60140E0362F8A894D
:101700009B89E817F907B9F08589882391F041A1F1
:10171000CF0147966C8B7D8B5C89531B541748F423
:10172000DC015D91CD01AC89BD895D93BD8BAC8B36
:10173000F3CFF396E4CFF801E658FE4F4083C8019B
:101740000E942A0AF2012081318143E3429FC001B5
:10175000439F900D1124C80ED91E81E521E030E091
:10176000EC14FD0409F469C0D70155969C91559776
:10177000911107C095968C939597ED91FC913787C1
:101780002687B3E3EB0EF11CEBCFF801EA5AFE4FCC
:101790009081B80160597E4F8FE08B871C861D8633
:1017A0001E861F8689E0E0E3F1E0DE0111960190DC
:1017B0000D928A95E1F7FE01953018F0319649E0D7
:1017C00002C03B9645E0962FDB0181918D938A2FD5
:1017D000891B8417D0F3F801E658FE4F4083C801F7
:1017E0000E942A0A7801E2E0EE0EF11CF801EC5C9E
:1017F000FE4F8081918123E3289F2001299F500C77
:1018000011244E0C5F1CCC24C394D12CE414F50499
:10181000A1F0D701ED91FC9185810E941D148234C5
:1018200041F021E5F70125A30190F081E02DD78655
:10183000C68633E3E30EF11CE9CFB801645B7E4F4B
:10184000C8010E949309F801EA5AFE4F8083D10132
:101850009C919923D1F1B4969081891336C03A971F
:101860009801280F311D81E02017310771F088237E
:1018700041F081E0D901A55BBE4F4C9190814913A5
:1018800080E0319621503109EFCF8823F1F06801D3
:10189000B2E0CB0ED11CF801EC5CFE4F808191814F
:1018A00023E3289F7001299FF00C1124EC0CFD1CF0
:1018B000CE14DF0451F0D601ED91FC9185810E9498
:1018C0003A07B3E3CB0ED11CF3CFF801E25CFE4F35
:1018D000F98BE88B80819181A281B381A50194016C
:1018E000281B390B4A0B5B0BDA01C901893E934077
:1018F000A105B10508F4B0C00E94AE06BF92AF9238
:101900009F928F9227E631E03F932F939F938F937F
:101910000E941003D301FC900E94AE061F92FF921A
:101920002DE431E03F932F939F938F930E941003F8
:101930007801B2E0EB0EF11CF801EC5CFE4F208167
:10194000318143E3429FC001439F900D1124F70171
:10195000E80FF91FFB8BEA8B0FB6F894DEBF0FBEC2
:10196000CDBFBAE02B2EAE014F5F5F4F6A018AE513
:10197000482E81E0582E8A899B89E816F90609F4D9
:1019800056C0D70191968C9191971F928F9356963E
:101990008C9156971F928F9398968C9198971F923F
:1019A0008F9395968C911F928F93E0E5F1E0FF93D2
:1019B000EF931F922F92DF92CF920E94281D0FB6B5
:1019C000F894DEBF0FBECDBFD3018C91D701ED914E
:1019D000FC91813079F48581D801AC59BE4FE0E0AB
:1019E0009D91891709F49EC2EF5FE630C9F7A8E51B
:1019F0003A2E04C085810E941D14382E0E94AE0626
:101A0000DF92CF92232D032C000C330B3F933F9298
:101A10005F924F929F938F930E9410030FB6F8949A
:101A2000DEBF0FBECDBF33E3E30EF11CA4CF0E9497
:101A3000AE062EEE31E03F932F939F938F930E943B
:101A40001003A889B9898D929D92AD92BC9213978B
:101A50000F900F900F900F900E94AE0686960E94F6
:101A6000D202882309F463C2F12C0E94AE06869646
:101A70000E94D202882339F00E94AE0686960E9408
:101A8000C102F82EF2CFB5E3FB1609F401C1BF1570
:101A900008F446C0E2E3FE1609F483C0EF1560F1D6
:101AA000F1E3FF1244C20E94AE06BF92AF929F9232
:101AB0008F9223E631E03F932F939F938F930E9461
:101AC00010037801F2E0EF0EF11CF801EC5CFE4F20
:101AD0008081918123E3289F8001299F100D11248B
:101AE0000E0D1F1D0FB6F894DEBF0FBECDBF70E701
:101AF000C72E71E0D72E60C023E3F21609F446C06A
:101B000034E3F31214C27801B6E9EB1ABEEFFB0A14
:101B10006801ECE9CE1AEEEFDE0A0EE711E0A1C093
:101B200048E3F41609F480C14F15A0F056E3F5160A
:101B300009F400C187E3F812FAC17801F6E9EF1A57
:101B4000FEEFFF0A680120E9C21A2EEFD20A0EE763
:101B500011E053C199E3F91609F486C1A1E5FA121F
:101B6000E6C10E94AE061F92FF922FE931E03F933B
:101B70002F939F938F930E9410030E94AE0627E736
:101B800031E03F932F939F938F93BFC1F12C580166
:101B9000BAEAAB1ABEEFBB0AFEE7CF2EF1E0DF2EAA
:101BA00043C0F12C5801E6E8AE1AEEEFBE0AEEE7AC
:101BB000CE2EE1E0DE2E1BC00E151F0509F496C1E6
:101BC000D7011596BC900E94AE061F92BF92DF927D
:101BD000CF929F938F930E941003B3E3EB0EF11CFF
:101BE0000F900F900F900F900F900F90E5CFF50191
:101BF0008081F81608F07AC1F801EF0DF11DEE5B57
:101C0000FE4FE0800E94AE061F92EF92DF92CF92CD
:101C10009F938F930E941003F3940F900F900F9057
:101C20000F900F900F90E3CFD5018C91F81608F02C
:101C30005DC1F801EF0DF11DE45BFE4FE0800E94F5
:101C4000AE061F92EF92DF92CF929F938F930E94E6
:101C50001003F3940F900F900F900F900F900F9030
:101C6000E3CFD701BE907D010E94AE061F92BF92C6
:101C70001F930F939F938F930E9410030F900F90C9
:101C80000F900F900F900F90CE14DF0451F72EC1DC
:101C90007801B2E0EB0EF11CF801EC5CFE4F8081A4
:101CA000918123E3289F8001299F100D11240E0D9F
:101CB0001F1D4CE9842E41E0942E5AE0652EFE0152
:101CC00031965F016AE5C62E61E0D62E0E151F051E
:101CD00009F48EC0D701ED91FC91868597859927EF
:101CE0009F938F939F928F921F926F92BF92AF920A
:101CF0000E94281DD701ED91FC9185810E941D1441
:101D0000782E0E94AE06BF92AF92272D072C000CB2
:101D1000330B3F937F92DF92CF929F938F930E94DA
:101D20001003B3E3EB0EF11C0FB6F894DEBF0FBE49
:101D3000CDBFCCCF7801F2E0EF0EF11CF801EC5CE6
:101D4000FE4F8081918123E3289F8001299F100D00
:101D500011240E0D1F1D96E8892E91E0992E2AE080
:101D6000622E9E012F5F3F4F59013AE5C32E31E0AD
:101D7000D32EE016F106E1F1D701D2968C91D297DD
:101D80001F928F9392968C9192971F928F93529657
:101D90008C9152971F928F9399968C911F928F934B
:101DA0009F928F921F926F92BF92AF920E94281DB6
:101DB000D701ED91FC9185810E941D14782E0E941F
:101DC000AE06BF92AF92272D072C000C330B3F932A
:101DD0007F92DF92CF929F938F930E941003B3E381
:101DE000EB0EF11C0FB6F894DEBF0FBECDBFC1CF16
:101DF0000E94AE062EEE31E07DC0D701BD907D0180
:101E00000E94AE061F92BF921F930F939F938F93D2
:101E10000E9410030F900F900F900F900F900F9053
:101E2000EC14FD0451F762C0F801E658FE4FE08063
:101E3000B497F0800E94AE061F922AE02F931F9263
:101E4000EF921F92FF9220E931E03F932F939F93EF
:101E50008F930E9410030E94AE0627E731E03F9364
:101E60002F939F938F9351C00E94AE06BF92AF9263
:101E70009F928F9223E631E03F932F939F938F930E
:101E80000E9410037801F2E0EF0EF11CF801EC5C07
:101E9000FE4F8081918123E3289F8001299F100DAF
:101EA00011240E0D1F1D0FB6F894DEBF0FBECDBF5F
:101EB0008EE7C82E81E0D82E0E151F05B9F0D70188
:101EC0005196BC900E94AE061F92BF92DF92CF92B5
:101ED0009F938F930E941003B3E3EB0EF11C0F90BE
:101EE0000F900F900F900F900F90E6CF0E94AE06CC
:101EF00027E731E03F932F939F938F930E94100326
:101F00000F900F900F900F9012C00E941003F801D5
:101F1000E05AFE4F81E080830FB6F894DEBF0FBE1B
:101F2000CDBF05C0F0E0E955FE4F308067CD659626
:101F30000FB6F894DEBF0FBECDBFDF91CF911F91DA
:101F40000F91FF90EF90DF90CF90BF90AF909F9058
:101F50008F907F906F905F904F903F902F9008955B
:101F60000F931F93CF93DF93CDB7DEB7CC57D140FC
:101F70000FB6F894DEBF0FBECDBF0E9485040E944D
:101F80009B048E010F5F1F4FC8010E94D2070E9461
:101F9000CE06FC01118300830E94CE060E946816C3
:101FA00080E090E0C458DE4F0FB6F894DEBF0FBE5D
:101FB000CDBFDF91CF911F910F9108958F929F9286
:101FC000AF92BF92CF92EF92FF920F9380916E00EB
:101FD00005B544B58160C82E0360436080E18F93EE
:101FE00086E4882E912C95E3A92EB12C2EE6E22EC4
:101FF000F12C25E430E064E470E08AEE93E00E9486
:10200000A70181E08093E2030F900F91FF90EF9082
:10201000CF90BF90AF909F908F900895FC01118258
:10202000108213821282158214821782168282E035
:1020300090E09187808784E18287148613861586D5
:1020400016861786108A0895FC0184E1828714861B
:102050001386158616861786108A0895AF92BF924A
:10206000CF92DF92EF92FF920F931F93CF93DF9364
:102070005C010E948500EC0141E064E20E94211BAA
:1020800002EA13E098EAC92E93E0D92E7801CE1423
:10209000DF0459F0882329F041E0B701CE010E9406
:1020A0006A1B9FEFE91AF90AF2CF882369F040E032
:1020B00068EA73E0CE010E946A1B882329F0CE01F2
:1020C0000E94D61A811102C0C0E005C08091A2030F
:1020D0008130D1F7C1E0EBE2F2E0CC2339F0C1E08E
:1020E000D80111969C9180819813C0E00F5F1F4F1B
:1020F0003196C016D10689F78091E203811102C0A2
:102100000E94DE0F8AEE93E00E94FB01F5016587D5
:1021100076878787908B8C2FDF91CF911F910F91BE
:10212000FF90EF90DF90CF90BF90AF900895CF9247
:10213000DF92FF920F931F93CF93DF9300D000D0D5
:10214000CDB7DEB76C01FC01158616861786108A9E
:102150001C828285982F977F11E0963829F0803471
:1021600019F0863509F010E00E94850041E064E234
:102170000E94211BF82E882309F441C00E9485008B
:1021800041E0BE016C5F7F4F0E946A1B8823B9F15A
:102190008C818130A1F50E94850041E0BE016C5F19
:1021A0007F4F0E946A1B882351F18C81811127C0C7
:1021B0000E94850041E0BE016C5F7F4F0E946A1B58
:1021C0008823E9F08C8181111AC00E94850041E0CA
:1021D000BE016C5F7F4F0E946A1B882381F08C8157
:1021E0008F3F69F41B821A820E94850041E0BE0184
:1021F0006D5F7F4F0E946A1B811106C031C00E9433
:10220000AE062CEE31E030C00E94850041E0BE01F8
:102210006E5F7F4F0E946A1B882311F18B819A8128
:10222000980FF1F4111102C092E001C093E0891BF4
:102230008093A103813428F00E94AE062BEC31E09C
:1022400013C00E94850041E0BE016C5F7F4F0E9479
:102250006A1B811121C00E94AE0620ED31E004C04E
:102260000E94AE0621EF31E03F932F939F938F930F
:102270000E9410030E94850040E0BE016C5F7F4F0A
:102280000E946A1B0E9485000E94D61A0F900F9030
:102290000F900F9080E0AEC08C81853DE1F60E94EA
:1022A000850041E0BE016C5F7F4F0E946A1B811177
:1022B00005C00E94AE0625ED31E0D6CFF6010285BD
:1022C0002C8130E0802F90E001962817390789F79C
:1022D0000A52112369F119820E94850041E0BE0172
:1022E0006F5F7F4F0E946A1B198181111FC00E947E
:1022F000AE061F921F932AED31E03F932F939F93D9
:102300008F930E9410030E94850040E0BE016C5F25
:102310007F4F0E946A1B0E9485000E94D61A0F9070
:102320000F900F900F900F900F90B4CF1111DFCF3F
:1023300010E08091A1031817A0F4C12ED12CFF202A
:1023400049F00E94850041E0B6016E557C4F0E9425
:102350006A1BF82EF601EE55FC4F8081080F1F5FB7
:10236000E8CFF1101BC00E94AE0627EE31E03F938C
:102370002F939F938F930E9410030E94850040E04B
:10238000BE016C5F7F4F0E946A1B0E9485000E9405
:10239000D61A0F900F900F900F901CC00E948500CE
:1023A00041E0BE016C5F7F4F0E946A1B182F88239B
:1023B00089F08C81080F71F40E94850040E0BE0115
:1023C0006C5F7F4F0E946A1B0E9485000E94D61A94
:1023D000812F10C00E94AE0626EF31E03F932F936D
:1023E0009F938F930E9410030F900F900F900F9068
:1023F00010E0E2CF0F900F900F900F90DF91CF91F0
:102400001F910F91FF90DF90CF900895EF92FF9270
:102410001F93CF93DF930E948500EC0140E064E2BC
:102420000E94211B9BE2E92E92E0F92E16E0882300
:1024300029F0F7016081CE010E94591B1150FFEF76
:10244000EF1AFF0A1111F3CF882341F0CE01DF917B
:10245000CF911F91FF90EF900C94D61A80E0DF91FE
:10246000CF911F91FF90EF900895AF92BF92CF92BE
:10247000DF92EF92FF920F931F93CF93DF937C0134
:10248000D62FB42EA52EC22E0E94850040E064E215
:102490000E94211B882309F492C00E9485008C01B0
:1024A00060E00E94591B882309F489C060E0C801DC
:1024B0000E94591B882309F482C06FEFC8010E9453
:1024C000591BD03411F463E001C062E0882309F4A1
:1024D00076C0C62FCC0D0E9485008C016C2F0E9407
:1024E000591B882309F46BC06C2F70E071956195BE
:1024F0007109C8010E94591B882309F460C064ED6A
:10250000C8010E94591B882309F459C06D2FC801C6
:102510000E94591BC82FD03421F094EDD92EDD0E26
:102520000AC0882331F00E94850061E00E94591B97
:10253000C82F85E1D82E0B2D1A2D5801AC0CB11CDB
:10254000A016B10679F0CC2341F0F801C0810E94B9
:1025500085006C2F0E94591BC82FF80181918F01B3
:10256000D80EEECFCC2381F10E9485008C016D2D19
:1025700061950E94591B882339F160E0C8010E94CF
:10258000591B882309F10E9485000E94D61A8823CE
:10259000D9F0F701D28781E090E09487838780911A
:1025A000E203811102C00E94DE0F8AEE93E00E94D6
:1025B000FB01F701658776878787908B06C0C0E0AF
:1025C000D03409F0AACFB5CFC0E08C2FDF91CF91E6
:1025D0001F910F91FF90EF90DF90CF90BF90AF9041
:1025E00008950F931F93CF93DF93EC018B018B859D
:1025F0009C858130910539F082309105C1F0892B9D
:1026000009F0E5C00CC06230710509F0E0C0CE01F0
:102610000E942E10811108C0CE010E94061223E0F4
:1026200048E252E064E1D0C01C870B87D0C0623022
:10263000710509F086C0CE010E949710811110C06B
:10264000CE010E940612882341F08A85803409F465
:10265000A6C0863509F0B4C0A2C01C861B86B7C0D0
:102660008A85863509F448C030F48431A9F1803474
:1026700009F457C0ACC08C3831F08E3869F1863817
:1026800009F0A5C005C020E040E050E066E89CC02D
:102690008A819B81009759F0DC01ED91FC910190BA
:1026A000F081E02D4091A10362EA73E009958881F1
:1026B0009981009759F0DC01ED91FC910190F08136
:1026C000E02D40E462EA73E0099501C080E0282F24
:1026D00042EA53E06EE878C088859985813091059B
:1026E00009F058C028E04BEF51E066E5CE010E94AA
:1026F0003512198708876BC08C819D81009759F02E
:10270000DC01ED91FC910190F081E02D40E462EA62
:1027100073E0099501C080E0282F42EA53E060E4AD
:1027200053C08E819F81009781F1DC01ED91FC9176
:102730000190F081E02D4091A10362EA73E00995D8
:1027400024C08D859E85AF85B889892B8A2B8B2BDC
:10275000F1F18091E203811102C00E94DE0F8AEE46
:1027600093E00E94FB010D851E852F853889DC01D1
:10277000CB01801B910BA20BB30B89359240A105B5
:10278000B10528F1CE010E94061288859985813015
:10279000910551F08230910599F0892BC1F428E020
:1027A0004BEF51E066E510C028E04BEF51E066E5E5
:1027B000CE010E94351282E090E09987888707C099
:1027C00025E243E052E06CE8CE010E94351281E040
:1027D000DF91CF911F910F9108958F929F92AF92A9
:1027E000BF92CF92EF92FF920F9380916E0005B54A
:1027F00044B58160C82E0360436080E18F9386E416
:10280000882E912C95E3A92EB12C2EE6E22EF12CE8
:1028100025E430E064E470E08AEE93E00E94A701D2
:1028200081E08093E2030F900F91FF90EF90CF90A3
:10283000BF90AF909F908F900895863030F4E82F2E
:10284000F0E0EF5CFD4F8081089588E5089588B140
:102850006F70807F682B68B90895DF92EF92FF92C6
:102860000F931F93CF93DF937C01C62FD42ED22FCB
:1028700040E00E94211B882331F06D2DC7010E948A
:10288000591B81112AC080E0D12C6D2F70E0EB0123
:1028900021976D2D70E06C177D0754F4882331F07B
:1028A000600F711F41E0C7010E946A1BD394F1CFF2
:1028B0008823C9F0B8016C0F7D1F40E0C7010E945A
:1028C0006A1B882381F0C701DF91CF911F910F917F
:1028D000FF90EF90DF900C94D61A41E06C2FC70167
:1028E0000E94F11AD1CF80E0DF91CF911F910F911B
:1028F000FF90EF90DF900895FF920F931F93CF9377
:10290000DF931F92CDB7DEB71982FC01F1800E94E0
:1029100085008E010F5F1F4F21E040E06F2D0E9468
:102920002D14898180950F90DF91CF911F910F9188
:10293000FF900895DF92EF92FF920F931F93CF9332
:10294000DF937C01C42FD22E40E00E94211B8823FC
:1029500021F06C2FC7010E94591BE8010D0D111DBC
:10296000C017D10741F0882321F06881C7010E9478
:10297000591B2196F5CF882351F0C701DF91CF91E4
:102980001F910F91FF90EF90DF900C94D61A80E08A
:10299000DF91CF911F910F91FF90EF90DF900895FD
:1029A000CF92DF92EF92FF920F931F93CF93DF931B
:1029B00000D0CDB7DEB77C01D62EFC01C0800E94CE
:1029C00085008E010E5F1F4F21E041E06C2D0E94BB
:1029D0002D1421E030E001C0220FDA94EAF71A81C9
:1029E000122B1A83882369F0F701F0800E9485007A
:1029F00019838E010F5F1F4F21E041E06F2D0E9470
:102A00009A140F900F90DF91CF911F910F91FF902B
:102A1000EF90DF90CF900895CF92DF92EF92FF92E8
:102A20000F931F93CF93DF9300D0CDB7DEB77C0118
:102A3000D62EFC01C0800E9485008E010E5F1F4FC4
:102A400021E041E06C2D0E942D1421E030E001C016
:102A5000220FDA94EAF720951A8112231A83882329
:102A600069F0F701F0800E94850019838E010F5FE5
:102A70001F4F21E041E06F2D0E949A140F900F909C
:102A8000DF91CF911F910F91FF90EF90DF90CF904A
:102A90000895BF92CF92DF92EF92FF920F931F9310
:102AA000CF93DF9300D0CDB7DEB77C0180E2F70192
:102AB000808381E281831186108687B18F6087B918
:102AC00068E0C7010E942714F701D0800E948500AA
:102AD00020EC29838E010F5F1F4F21E043E06D2D15
:102AE0000E949A14F701D0800E9485001A820F5F1D
:102AF0001F4F21E041E06D2D0E949A140E94850035
:102B00000E94D31A06E011E06701F2E0CF0ED11C5B
:102B1000F801B1908F016B2DC7010E94271480919D
:102B2000E203811102C00E94ED134AE050E060E030
:102B300070E08AEE93E00E94410245983D9A3D98EC
:102B4000459A8091E203811102C00E94ED134AE090
:102B500050E060E070E08AEE93E00E944102359B15
:102B600014C0F701608571856630710570F46C0DD5
:102B70007D1D81E090E00E947E1BFC01B082F70188
:102B800080859185019691878087F1E00C301F0741
:102B900009F0BECF68E0C7010E9427140F900F9084
:102BA000DF91CF911F910F91FF90EF90DF90CF9029
:102BB000BF9008958AB18F738AB98BB18F738BB927
:102BC000ECE7F0E08081806E8083EAE7F0E08081CE
:102BD00086688083089589B186FB882780F90895E7
:102BE00089B1881F8827881F08955C9A549A089590
:102BF00080917C00807F682B60937C0080917A00BC
:102C0000806480937A0080917A0086FDFCCF809169
:102C10007900089567E00E94F81521E1829FC001C4
:102C20001124089568E00E94F81590E00895AF928D
:102C3000BF92CF92DF92EF92FF920F931F93CF93A9
:102C4000DF937C018C0104571F4FF8011182108221
:102C50000E94BC06EC012296FC01C084D184CC0EFB
:102C6000DD1EF2E0EF0EF11C87E1B82ECC16DD067A
:102C700021F1F8018081918186309105E0F4A880EE
:102C8000B89EB001B99E700D11246E0D7F1D87E1B5
:102C900090E00E947E1BFC0110821182128213823E
:102CA0001482A58206960E940E10F80180819181FF
:102CB0000196918380832196D9CFDF91CF911F9187
:102CC0000F91FF90EF90DF90CF90BF90AF9008955D
:102CD0002C013C0182E0680E711C12019CE8290E57
:102CE000311C8091E20381111FC080916E0005B5F7
:102CF00044B58160C82E03604360A0E1AF9386E4D1
:102D0000882E912C95E3A92EB12C2EE6E22EF12CE3
:102D100025E430E064E470E08AEE93E00E94A701CD
:102D2000B1E0B093E2030F908AEE93E00E94FB01C2
:102D30006B017C010E94BC060E947C14D301F1014E
:102D400040815181F7E1F49F9001F59F300D1124EE
:102D5000260D371DF301C0E0D0E0082F10E0E21788
:102D6000F307F1F080818823C9F0C801058002C013
:102D7000959587950A94E2F780FF10C0209769F037
:102D800081809280A380B48049815A816B817C814B
:102D900084169506A606B70608F4EF017796DFCFEE
:102DA000209769F0C982DA82EB82FC820D810E9451
:102DB000BC06602F0E94271462E070E069C0F30136
:102DC000E217F30709F1808181111CC04181528112
:102DD0006381748146015701841A950AA60AB70ACD
:102DE00085E688169104A104B10460F0209749F0AB
:102DF00089809A80AB80BC80481559056A057B059F
:102E000008F4EF017796DCCF209789F0C982DA8247
:102E1000EB82FC820D810E94BC06602F0E94D014C0
:102E200091E098835ECF8C91811105C05796A217CF
:102E3000B307C9F71FC011964D915D916D917C91BB
:102E4000149746015701841A950AA60AB70AE5E6BF
:102E50008E169104A104B10448F3209749F08980AB
:102E60009A80AB80BC80481559056A057B05F0F651
:102E7000ED01DCCF2097D1F0C982DA82EB82FC82AF
:102E80000D810E94BC06602F0E94271460E070E054
:102E9000CE0106960E94F112811123CF0D810E946E
:102EA000BC06602F0E940C1518821BCFD2018D9199
:102EB0009C91009709F415CFDC01ED91FC910190F4
:102EC000F081E02DB701A60109950BCFCF93DF93D9
:102ED000FC01A281B3811896CD91DC91199768818C
:102EE00079815D968D919C915E9701965E969C93FB
:102EF0008E935D975C969C915C9712960D90BC9119
:102F0000A02D8C91992339F08F7B8C93A281B38172
:102F10005C961C9207C080648C93A281B38180E888
:102F20005C968C93A281B38150968C9150978111BD
:102F30002EC0911184C01C96CD91DC911D9757969F
:102F40008D919C915897860F971F99838883169629
:102F50000D90BC91A02D84E08C93A281B381149636
:102F60000D90BC91A02D8C9184608C930280F38194
:102F7000E02D828993899C0136952795620F731FF6
:102F8000860F971F968B858B81E0808B58C0559656
:102F90002D913C915697A281B381AB01421B530BFB
:102FA00057FD47C05A969C915A9796955C964C91BE
:102FB0005C97942B5A969C93A281B38152964D9123
:102FC0005C915397240F351F8F5F893020F314963F
:102FD0000D90BC91A02D8C918B7F8C93A281B3819D
:102FE0005F968C915F978F5F803408F080E09096B9
:102FF0009C919097891759F05A969C915A97A80FCF
:10300000B11D91969C93A281B3815F968C93A2810E
:10301000B38112960D90BC91A02D8C918F7B8C93D7
:10302000A281B3815C961C920280F381E02D108A0C
:1030300006C056963C932E93559750968C93DF91ED
:10304000CF910895CF93DF93FC01A281B381519674
:103050008C91519759964C9159971A96CD91DC9134
:103060001B9728813981893068F552966D917C9142
:103070005397260F371F542F517046958F5F5B96DD
:103080009C915B97591779F30D90BC91A02D9C9161
:10309000552311F0906C02C09F7B90689C93A28195
:1030A000B3811A96CD91DC911B97398328835B9667
:1030B0005C93A281B38159964C930280F381E02DF9
:1030C000818B57C0893059F48AE051968C93A28144
:1030D000B3810D90BC91A02D8C91806C3DC0ED0111
:1030E000CF59DF4F988121968881981314C051964B
:1030F0001C92A281B3810D90BC91A02D8C918F73F5
:103100008C930280F381E02D0480F581E02D808195
:103110008D7F80832EC091E051969C938F5F803489
:1031200008F080E0A281B381AE59BF4F8C93C28179
:10313000D381DE01A80FB11DAD59BF4F8C91898F8E
:10314000A281B3815B961C92A281B3810D90BC9148
:10315000A02D8C918F7B80688C930280F381E02D71
:10316000A285B38582899389280F391F11963C93D4
:103170002E93DF91CF910895FC01A281B381149623
:103180000D90BC91A02D8C918B7F8C93A281B381EB
:1031900012960D90BC91A02D8C918F7B8C93A28167
:1031A000B38150969C9150975C962C912058A281A7
:1031B000B381993048F45A968C915A978695822B10
:1031C0005A968C939F5FF3CF5F968C915F978F5F3A
:1031D000803408F080E090969C919097891759F080
:1031E0005A969C915A97A80FB11D91969C93A281D3
:1031F000B3815F968C93A281B38150961C92A28179
:10320000B38112960D90BC91A02D8C918F7B8C93E5
:103210000280F381E02D148E08952BE332E0FC014F
:103220003183208373836283642F0C94330321E4FE
:1032300032E0FC013183208373836283642F0C941A
:10324000330327E432E0FC013183208373836283FC
:10325000642F0C9433032F923F924F925F926F92A0
:103260007F928F929F92AF92BF92CF92DF92EF9216
:10327000FF920F931F93CF93DF93CDB7DEB73C013F
:103280001A012B01DC0111963C932E9313961C938B
:103290000E9312971596FC92EE9214971796DC9265
:1032A000CE9216971996BC92AE9218971B969C9246
:1032B0008E921A978D899E891D969C938E931C974A
:1032C0008F89988D1F969C938E931E9750961C9273
:1032D000509751961C92519753961C921E9252975A
:1032E00054961C92549756961C921E925597589637
:1032F0001C921E92579759961C9259975A961C9257
:103300005A975B961C925B975C961C925C975F96B3
:103310001C925F9790961C92F301EF59FF4F108219
:103320001182498DB301C3018D559F4F0E940D1924
:103330004A8DB301C30189559F4F0E9417194B8DC8
:10334000B301C30185559F4F0E942119F301168EC9
:10335000158ED201C101B695A79597958795BC01A9
:10336000CD017E5E85489F4FA20191010E94801B86
:103370002D3AFBE13F074105510580F4D301149636
:10338000ED91FC9115971082ED91FC9111971082AF
:103390001296ED91FC91139781E81CC063E056955D
:1033A0004795379527956A95D1F72D3ABBE13B07AD
:1033B0004105510588F5D3011496ED91FC911597BF
:1033C0001082ED91FC91119710821296ED91FC9173
:1033D000139782E88083F301338B228BA5E2B0E060
:1033E0000E94A21BDC01CB0122E0B695A795979520
:1033F00087952A95D1F7908F878B2098289A219AC4
:10340000299A0680F781E02D80E28083D30114960B
:10341000ED91FC9115978083DF91CF911F910F91D2
:10342000FF90EF90DF90CF90BF90AF909F908F90E4
:103430007F906F905F904F903F902F900895CF9323
:10344000DF93FC01DC01AF59BF4F9C919F5F90342B
:1034500008F090E0EF01CE59DF4F88818917E9F33A
:103460002FB7F8948189882339F0E90FF11DED59C0
:10347000FF4F60839C931EC081E0818B618F138E10
:10348000A681B78182E08C93A481B5818C91826002
:103490008C93A081B1818C918F7B80688C93A28565
:1034A000B3850684F785E02D808191814096119641
:1034B0009C938E932FBFDF91CF910895FC0191894A
:1034C0009111FDCF0895CF93DF93EC01EC81FD8145
:1034D00080818B7F8083EC81FD8180818F7D8083E3
:1034E00088A18F8FCE010E945E1AEC81FD818081C0
:1034F0008D7F8083DF91CF910895FC019FB7F89471
:1035000020A1878D281759F080A18F5F80A380A10B
:103510008F7380A380A1E80FF11D81A101C08FEFFF
:103520009FBF0895FC01378D20A1321721F0E20FD3
:10353000F11D81A108958FEF08953FB7F894FC0124
:10354000278D90A13FBF81E0291301C080E008953D
:10355000FC0120A1278F08950E94AE0668E50E9415
:10356000E7020E94AE0668E50E94E7020E94AE06EE
:1035700068E50E94E7020E94AE066DE00E94E70245
:103580000E94AE066AE00E94E7021092BC0080E052
:1035900008951092B90082E08093B800089584E005
:1035A0008093BC0008951092BC00089584E9809334
:1035B000BC008FEF9FEF2091BC0024FF04C0019757
:1035C000D1F70C94AC1A81E008958FEF9FEF209112
:1035D000BC0027FD04C00197D1F70C94AC1A81E020
:1035E00008950F931F93CF93DF938C01D62FC42F91
:1035F00084EA8093BC00C8010E94E51A8823D9F0B0
:103600008091B900887F883011F08031A1F4DD0FFE
:10361000CD2BC093BB0084E88093BC00C8010E94FE
:10362000E51A882341F09091B900987F983121F0F4
:1036300081E0903409F080E0DF91CF911F910F91EC
:103640000895FF920F931F93CF93DF93EC01660FC2
:10365000162F142B04EA84E8F82E0093BC00CE0148
:103660000E94E51A811102C080E01DC08091B9005E
:10367000887F883011F0803181F71093BB00F09281
:10368000BC00CE010E94E51A882371F39091B90025
:10369000987F903211F0983531F4CE010E94D61AFD
:1036A0008111DBCFE1CFDF91CF911F910F91FF907F
:1036B00008956093BB0024E82093BC000E94E51AA3
:1036C000882339F09091B900987F81E0983209F011
:1036D00080E00895CF93DF93EB01411102C024E80D
:1036E00001C024EC2093BC000E94E51A882319F045
:1036F0009091BB009883DF91CF910895CB010895FD
:10370000A1E21A2EAA1BBB1BFD010DC0AA1FBB1FE5
:10371000EE1FFF1FA217B307E407F50720F0A21B57
:10372000B30BE40BF50B661F771F881F991F1A94C4
:1037300069F760957095809590959B01AC01BD01EE
:10374000CF0108950E94AD1BA59F900DB49F900DD1
:10375000A49F800D911D11240895A29FB001B39FD5
:10376000C001A39F700D811D1124911DB29F700D8A
:10377000811D1124911D08950F931F93CF93DF9303
:103780008230910510F482E090E0E0910304F09122
:10379000040420E030E0A0E0B0E0309719F140816F
:1037A00051810281138148175907C8F08417950782
:1037B00069F4109731F012960C93129713961C939C
:1037C00027C0009303041093040422C0211531057F
:1037D00019F04217530718F49A01BD01EF01DF01F8
:1037E000F801DBCF21153105F9F0281B390B243006
:1037F000310580F48A819B816115710521F0FB01FF
:103800009383828304C09093040480930304FE0195
:10381000329644C0FE01E20FF31F81939193225030
:103820003109398328833AC0209101043091020480
:10383000232B41F4209102013091030130930204C3
:1038400020930104209100013091010121153105DF
:1038500041F42DB73EB74091040150910501241B5E
:10386000350BE0910104F0910204E217F307A0F494
:103870002E1B3F0B2817390778F0AC014E5F5F4FC6
:103880002417350748F04E0F5F1F509302044093F2
:1038900001048193919302C0E0E0F0E0CF01DF9159
:1038A000CF911F910F910895CF93DF93009709F463
:1038B00081C0FC01329713821282A0910304B0915F
:1038C0000404109781F420813181820F931F20918D
:1038D0000104309102042817390751F5F0930204CE
:1038E000E093010467C0ED0120E030E0CE17DF0770
:1038F00040F44A815B819E0141155105F1F0EA01D6
:10390000F5CFD383C28340815181840F951FC8179F
:10391000D90759F488819981840F951F0296918364
:1039200080838A819B81938382832115310529F4C9
:10393000F0930404E09303043DC0E901FB83EA83B0
:1039400049915991C40FD51FEC17FD0761F480818F
:103950009181840F951F0296E90199838883828162
:1039600093819B838A83E0E0F0E012968D919C9195
:103970001397009719F0FD01DC01F7CF8D919C9111
:1039800011979D012E5F3F4F820F931F20910104DD
:10399000309102042817390769F4309729F41092FE
:1039A00004041092030402C013821282B093020432
:1039B000A0930104DF91CF9108950F931F93CF93AC
:1039C000DF93009731F46115710519F480E090E000
:1039D0003AC08B01EC016EE070E081E090E00E9463
:1039E000391FFC01892B91F380E8838301151105B0
:1039F00071F01387028781E8838380910504909199
:103A00000604892B21F4F0930604E0930504209723
:103A1000C9F0D187C0878381826083838091070446
:103A200090910804892B71F4F0930804E093070443
:103A30008091090490910A04892B21F4F0930A04DF
:103A4000E0930904CF01DF91CF911F910F91089569
:103A5000AEE0B0E0EEE2FDE10C941A200D891E8983
:103A60008F89988D26E02C831A83098397FF02C0E3
:103A700080E090E801979E838D83AE01455E5F4FA5
:103A8000698D7A8DCE0101960E94581D4D815E810F
:103A900057FD0AC02F813885421753070CF49A014D
:103AA000F801E20FF31F10822E96E4E00C9436200A
:103AB000ABE0B0E0EEE5FDE10C940C206C017B0185
:103AC0008A01FC0117821682838181FFCCC1CE015D
:103AD00001963C01F6019381F70193FD859193FFD7
:103AE00081917F01882309F4BAC1853239F493FDAD
:103AF000859193FF81917F01853229F4B60190E091
:103B00000E94721FE7CF912C212C312CFFE1F3157D
:103B1000D8F08B3279F038F4803279F08332A1F426
:103B2000232D20611DC08D3261F0803369F4232D77
:103B3000216016C0832D8260382EE32DE4603E2E76
:103B40002AC0F32DF8601DC037FC2DC020ED280FD2
:103B50002A3040F08E32B9F436FC81C1232D206426
:103B6000322E19C036FE06C08AE0989E200D112420
:103B7000922E11C0EAE02E9E200D1124222EF32D4C
:103B8000F0623F2E08C08C3621F4832D8068382ED9
:103B900002C0883641F4F70193FD859193FF81912E
:103BA0007F018111B3CF982F9F7D9554933028F4D6
:103BB0000C5F1F4F9FE399830DC0833631F083372D
:103BC00071F0833509F059C021C0F80180818983E3
:103BD0000E5F1F4F88248394912C530113C028013A
:103BE000F2E04F0E511CF801A080B18036FE03C0F8
:103BF000692D70E002C06FEF7FEFC5010E94671F63
:103C00004C018201F32DFF773F2E16C0280122E0E0
:103C1000420E511CF801A080B18036FE03C0692D10
:103C200070E002C06FEF7FEFC5010E94551F4C018D
:103C3000F32DF0683F2E820133FC1BC0822D90E0F3
:103C400088169906B0F4B60180E290E00E94721FD7
:103C50002A94F4CFF50137FC859137FE81915F01FD
:103C6000B60190E00E94721F21102A9421E0821A6E
:103C700091088114910471F7E8C0843611F08936F7
:103C800041F5F80137FE07C060817181828193811F
:103C90000C5F1F4F08C060817181072E000C880BDC
:103CA000990B0E5F1F4FF32DFF763F2E97FF09C034
:103CB00090958095709561957F4F8F4F9F4FF068DD
:103CC0003F2E2AE030E0A3010E94AE1F882E861806
:103CD00045C0853731F4232D2F7EB22E2AE030E007
:103CE00025C0932D997FB92E8F36C1F018F48835F1
:103CF00079F0B5C0803719F0883721F0B0C0E92FCE
:103D0000E061BE2EB4FE0DC0FB2DF460BF2E09C0D5
:103D100034FE0AC0292F2660B22E06C028E030E00B
:103D200005C020E130E002C020E132E0F801B7FE3A
:103D300007C060817181828193810C5F1F4F06C033
:103D40006081718180E090E00E5F1F4FA3010E94AF
:103D5000AE1F882E8618FB2DFF773F2E36FE0DC036
:103D6000232D2E7FA22E891458F434FE0BC032FC72
:103D700009C0832D8E7EA82E05C0B82CA32C03C0AD
:103D8000B82C01C0B92CA4FE0FC0FE01E80DF11D36
:103D90008081803321F49A2D997EA92E09C0A2FE3C
:103DA00006C0B394B39404C08A2D867809F0B39406
:103DB000A3FC11C0A0FE06C0B21488F4280C922CFB
:103DC0009B180EC0B21460F4B60180E290E00E942D
:103DD000721FB394F7CFB21418F42B1802C0982CAA
:103DE000212CA4FE10C0B60180E390E00E94721F57
:103DF000A2FE17C0A1FC03C088E790E002C088E5DE
:103E000090E0B6010CC08A2D867859F0A1FE02C060
:103E10008BE201C080E2A7FC8DE2B60190E00E9437
:103E2000721F891438F4B60180E390E00E94721F7B
:103E30009A94F7CF8A94F301E80DF11D8081B601C1
:103E400090E00E94721F8110F5CF222009F442CE2B
:103E5000B60180E290E00E94721F2A94F6CFF6012C
:103E60008681978102C08FEF9FEF2B96E2E10C9441
:103E700028200F931F93CF93DF93869F8001879F06
:103E8000100D969F100D1124C8010E94BC1BEC015F
:103E9000009729F0A80160E070E00E94601FCE0149
:103EA000DF91CF911F910F910895FC010590615012
:103EB00070400110D8F7809590958E0F9F1F089540
:103EC000DC0101C06D9341505040E0F70895FC01C2
:103ED0006150704001900110D8F7809590958E0F39
:103EE0009F1F08950F931F93CF93DF93FB012381AF
:103EF00021FD03C08FEF9FEF2CC022FF16C046812B
:103F00005781248135814217530744F4A081B18140
:103F10009D012F5F3F4F318320838C932681378112
:103F20002F5F3F4F3783268314C08B01EC01FB01C9
:103F30000084F185E02D0995892BE1F6D8011696CC
:103F40008D919C911797019617969C938E93169737
:103F5000CE01DF91CF911F910F910895FA01AA2709
:103F6000283051F1203181F1E8946F936E7F6E5FBC
:103F70007F4F8F4F9F4FAF4FB1E03ED0B4E03CD06A
:103F8000670F781F891F9A1FA11D680F791F8A1F4D
:103F9000911DA11D6A0F711D811D911DA11D20D0B4
:103FA00009F468943F912AE0269F11243019305D6E
:103FB0003193DEF6CF010895462F4770405D41935F
:103FC000B3E00FD0C9F7F6CF462F4F70405D4A33AC
:103FD00018F0495D31FD4052419302D0A9F7EACF74
:103FE000B4E0A6959795879577956795BA95C9F7A3
:103FF00000976105710508959B01AC010A2E069496
:104000005795479537952795BA95C9F7620F731F4E
:10401000841F951FA01D08952F923F924F925F928B
:104020006F927F928F929F92AF92BF92CF92DF92C8
:10403000EF92FF920F931F93CF93DF93CDB7DEB72D
:10404000CA1BDB0B0FB6F894DEBF0FBECDBF0994C1
:104050002A88398848885F846E847D848C849B8418
:10406000AA84B984C884DF80EE80FD800C811B8126
:10407000AA81B981CE0FD11D0FB6F894DEBF0FBE55
:0E408000CDBFED0108950E945300F894FFCFCC
:10408E0000000B04200000010203040504030501D7
:10409E0004020400050201050304010500040205E3
:1040AE0000010203000302010003020300010504E4
:1040BE000F0200020002000200000000006F01006B
:1040CE000000007B02000000006D02A55A2575005D
:1040DE00256325642F256325640025633A20253545
:1040EE007320001B5B316D5B2530356C755D2000D8
:1040FE001B5B316D2564001B5B306D0D0A001B5B75
:10410E00316D25642000256425642F256425640007
:10411E001B5B316D25643A2025643A202564001B13
:10412E005B316D2563200052464C50544200000016
:10413E00001B06000000004006000000005E0600A6
:10414E00000000850600000000E20A52330D0A004E
:10415E0052340D0A0052350D0A0052363A2030788C
:10416E00253032780D0A0052370D0A0052310D0AF1
:10417E000052320D0A0052380D0A000102000000F2
:10418E000000000004001234564001FEA2A3A4A5B4
:10419E00A6A7C0C1C2C3C4C5C6C7FFFFAA99887768
:1041AE0066554433221100000114010000FF00FF88
:1041BE00004E4553575442000000006617000000A1
:0A41CE0000221800000000BC1800D9
:00000001FF
